:020000040000FA
:1000000018020020D90000004F0C0000B50A0000C3
:1000100000000000000000000000000000000000E0
:10002000000000000000000000000000770E00004B
:100030000000000000000000530C0000790E0000DA
:1000400051110000A50B0000710E0000AD0700006B
:10005000390D0000AF070000B1070000B307000032
:10006000B5070000A5070000A7070000A9070000CA
:10007000F10600003D0700004D1100004F11000087
:100080008109000085090000A1090000050A00009F
:10009000590700007507000091070000B90A000029
:1000A000BB0A0000730E0000750E0000E50E000094
:1000B000150F0000310F000055070000AB070000CE
:1000C0000448854600F0E8FA00480047491300005C
:1000D000C046C04618020020044880470448004734
:1000E000FEE7FEE7FEE7FEE7FEE7FEE7A10E000003
:1000F000C100000030B50B4601460020202201243B
:1001000009E00D46D5409D4205D31D469540491B4B
:100110002546954040191546521E002DF1DC30BD94
:10012000D2B201E00270401C491EFBD2704700228F
:10013000F6E710B513460A4604461946FFF7F0FFE6
:10014000204610BDF8B502464A40D40F42004B008D
:1001500052085B089A4202D20246084611464A00FB
:1001600023D0C30D4A00DDB2120EAD1A202D35DAB0
:1001700049020126490AF6058A19002C00D052428C
:1001800020214F1B1146B9402A411018C20D9A4236
:1001900021D0002C17D0012D08DCDA05801AD20FEF
:1001A0008019D207DBB200F0DFF9F8BDDA05801A5A
:1001B000012340001B06C01880185A428018CA0F3D
:1001C0001043490007E04908C2071143DA05801AC5
:1001D00080194008801800F0BFF9F8BD61000122C5
:1001E000511A001BF7E70122D2075140AAE701226A
:1001F000D2075040A6E7024670B54A40D30FDB074E
:1002000040002DD04A002AD0010E140E0002120226
:100210000919400A520A8418E50104465443000AA9
:10022000120A2E045043A4194219200CC543AA18DF
:10023000120C0125AD03521C521912047F392404FB
:1002400000D0521C104301D44000491EC2B20C061B
:10025000C0092018401C4008802A02D003E000207A
:1002600070BD40084000002900DA0020184370BD2E
:1002700070B502464A40D50F40004A00ED074008DD
:100280005208002814D0002A12D0C40DD30D410208
:100290000120C0055202490A520AE41A091812182C
:1002A0007D34914201D3641C00E04900002C01DA46
:1002B000002070BD0023914201D3891A03434008F6
:1002C00049000028F7D100290AD0914202D101212A
:1002D000C90705E0914201D2012101E00121C94392
:1002E000E005C018401900F037F970BDF0B50746B9
:1002F0000846584087B0C00F049048000E46590089
:1003000040084908BC1A884105D2384631461E4685
:1003100017460B4602465800400810434DD0300D9A
:10032000039040055900400D490D0590401A029078
:10033000402873DA18030121000B090508430190D6
:1003400004980092002806D01146019A49420020E4
:10035000904100910190029840210A1A0199009859
:1003600000F0C6F805460C466B4607CB00F0E1F8F6
:10037000C0197141039A0E0D0023D71756401A4633
:100380007A40164344D0049A002A2DD0029A012ABA
:10039000039A15DC1205C01A914101263605001C8E
:1003A0007141D20F059ED2070093019202962A4610
:1003B000234600F01FF907B0F0BD38463146FAE792
:1003C0001605234A0F46B218C01AB7410121090584
:1003D000001C4F4100187F41114618187941E20F67
:1003E00010436D19644113E0E2076D08154364087A
:1003F000C2071443039A01261205C01A914136051B
:10040000001C7141CE07400830434908C0185141D3
:100410002A46234600F0E1F8CDE7FFE704980122E1
:100420004000C117121A00238B4104983146C417AB
:10043000381AA141EEE730B40124E407634030BC30
:1004400054E730B40124E407614030BC4EE70000BB
:100450000000E0FF10B500229623114600F084F85A
:1004600010BD410040020122400AD205090E801849
:100470007F2901DA00207047962903DC9622511A61
:10048000C840704796398840704700004A00090309
:100490000123090B1B051943094B10B5520D9A4254
:1004A00001DA002010BD064B34339A4203DC9A1A5D
:1004B00000F02EF810BD03495118884010BD00000F
:1004C000FF030000CDFBFFFFC20FD2074000400832
:1004D0000BD0C10D0723DB01C91840020905400AF2
:1004E0001143C2084007114370470020014670477E
:1004F00010B5202A04DB0146203A9140002010BDAF
:10050000914020239C1A0346E3401943904010BDBC
:1005100010B5202A04DB0846203AD040002110BD47
:100520000B46D340D0402024A21A914008431946DC
:1005300010BD10B5202A06DBCB170846203A104123
:10054000C1170B4306E00B461341D0402024A21AEA
:1005500091400843194610BD002904DA401C4900A7
:1005600001D140084000704770B40024050C05D14B
:100570001024000402D1002921D01124050E01D13C
:1005800000020834050F01D10001241D850F01D19F
:100590008000A41C002801DB4000641C002908D056
:1005A00020252E1B0D46F540A14000D001212943F6
:1005B000084301061B1B000ADB1D02D5002070BC8E
:1005C0007047DB05181880180029F8DA401C49002C
:1005D000F5D170BC40084000704710B5002B08DA18
:1005E0000024401C614192185B411A4301D140082C
:1005F000400010BDF0B51FB482B005460C0003D01A
:10060000084600F0A6FD02E000F0A3FD20300246FF
:10061000009021462846FFF76BFF049B059A04468D
:100620000F4618431143084314D0184610431BD0FB
:10063000009840210A1A18460599FFF769FF0546F8
:100640000E46009A05990498FFF752FF084305D01B
:10065000012004E02046394607B0F0BD0020C11754
:1006600005430E432C43374300990E986305401A07
:100670007905E40A00220C43FD0A0A3002D5002065
:100680000146E9E70105101969410C9C0D9D00190F
:100690006941FFF7A2FFDFE7064C0125064E05E0A2
:1006A000E36807CC2B430C3C98471034B442F7D393
:1006B000FFF70AFDE013000000140000C2698A433E
:1006C000C26170470348806BC009C001014988635B
:1006D00070470000002401400148006A80B2704762
:1006E000002401400149C96B01707047002401409A
:1006F00008B56846FFF7F6FF00BF68460078C007F8
:10070000C00F0028F9D0FFF7E7FF02490880FFF784
:10071000D9FF08BD04000020C143014A5161704760
:10072000002C01400146044800690840002801D01F
:10073000012070470020FCE7002C014010B501208B
:100740000004FFF7EFFF002803D001200004FFF7AB
:10075000E3FF10BD7047000010B50121044800F010
:1007600018F8002803D001210148FFF7A7FF10BDAA
:100770000048014010B50121044800F00AF80028A3
:1007800003D001210148FFF799FF10BD0049014046
:100790007047024690690840002801D00120704748
:1007A0000020FCE7704770477047704770477047FC
:1007B00070477047704700001FB50121102000F0FE
:1007C00049FA0121202000F045FA0121480200F0F9
:1007D00061FA0121802000F04DFA0920C00640692D
:1007E00000090001801C0921C906486108464069CA
:1007F000F021884320300921C90648611B488069DF
:10080000F021884310301949886108468069000941
:100810000001401C8861FF200130009020200190E1
:100820001348039069460920C00600F023F8012010
:10083000400200901120019069460920C00600F096
:1008400019F8022000902020019009480390694681
:10085000064800F00FF80120009011200190044894
:1008600003906946014800F005F81FBD00040048E8
:10087000FFFF00004A68002A04D1C2690B681A43CE
:10088000C26174E0C2690B689A43C26110234A686E
:100890001A40102A4ED102680B681A4302604A6857
:1008A000112A07D102690B681A430261C2680B68FA
:1008B0009A43C2604A68122A07D1C2680B681A4379
:1008C000C26002690B689A430261426A0B689A43EC
:1008D0004262826A0B689A438262C26A0B689A43D8
:1008E000C262026B0B689A43026381238A681A40D2
:1008F000812A03D1426A0B681A43426282238A68C2
:100900001A40822A03D1826A0B681A4382628423C6
:100910008A681A40842A03D1C26A0B681A43C262E9
:1009200088238A681A40882A21D1026B0B681A43EF
:1009300002631CE002680B689A4302604A68202A3E
:1009400004D142680B689A43426003E042680B6836
:100950001A434260064BCA689A4204D182680B6807
:100960001A43826003E082680B689A438260704792
:10097000FFFF0000012A01D1C16500E081657047D9
:100980007047000010B50121044800F050F800281D
:1009900003D00121014800F036F810BD00100040DE
:1009A00010B50121044800F042F8002803D00121CD
:1009B000014800F028F810BD0040014000B585B0A6
:1009C0000121880200F066F9002000900190FF20CC
:1009D0008130039009480490002069460872084855
:1009E00000F048F801221146054800F02CF80121DA
:1009F000034800F00EF805B000BD00002F750000A0
:100A0000004001407047CA4303231B02C318DA6148
:100A10007047032212028218126952085200CB0753
:100A2000DB0F1A4303231B02C3181A6170470246E7
:100A300003200002101880690840002801D001201E
:100A400070470020FCE710B5002A09D003231B02E1
:100A5000C3185B690B43032424020419636108E093
:100A600003231B02C3185B698B430324240204196C
:100A7000636110BD10B54B68CA681A430B681A430E
:100A80000B7A002B01D0402300E000231A430323FC
:100A90001B02C3181B69064C23401A4303231B0285
:100AA000C3181A6103231B02C3180A691A6010BD18
:100AB00019F8FFFF00BFFEE77047704770B50546A5
:100AC000154801787D20C000FFF714FB064631462B
:100AD0002846FFF70FFB0446601E1049884201D9E3
:100AE00001200CE0601E0E4948610321081F00F040
:100AF00061FB00200A498861072008610020002866
:100B000000D070BD0021481E00F054FB00200549B4
:100B1000086000BFF5E7000010000020FFFFFF00A5
:100B200000E000E00C00002003480068400840009E
:100B30000149086070470000802A014010B500F0AC
:100B400011F80748006801214902884304490860F8
:100B500008464068E02188430149486010BD000014
:100B6000802A014010B5012000F018FB0120002868
:100B700009DBC206D20E01219140044A1160BFF385
:100B80004F8FBFF36F8F00BF10BD000080E100E00A
:100B900003480068012108430149086070470000CC
:100BA000802A01407047000010B50446FFF7BCFFE3
:100BB000FFF7C4FF616920690843E16808430A49F7
:100BC0004968490949010843074948606168A068C4
:100BD00008432168084304490968FE2291430843F9
:100BE0000149086010BD0000802A014010B50022B4
:100BF000C2B2002905D0064B5B681343044C636006
:100C000004E0034B5B689343014C636010BD00003C
:100C1000802A014000B587B0182101A8FFF787FAA4
:100C200000200290802003900E2006900020059066
:100C3000022001900120049001A8FFF7B5FF0121D7
:100C40008020FFF7D3FFFFF7A3FF07B000BD704779
:100C500070477047002905D0054A126B0243044BC8
:100C60001A6304E0024A126B8243014B1A63704715
:100C700000000140002905D0054A926B0243044B55
:100C80009A6304E0024A926B8243014B9A63704775
:100C900000000140002905D0054A526B0243044B75
:100CA0005A6304E0024A526B8243014B5A63704715
:100CB0000000014010B5082000F024F8002000F0EA
:100CC0004DF8002000F00EF8002000F037F804483E
:100CD0000068FFF7F3FE01210220FFF7BBFF10BD04
:100CE0000000002004490968044A1140044A891898
:100CF0000143014A11607047000001401FFF0000DE
:100D000000005A5AC1029322520212881143084A23
:100D1000916111464968074A1143054A516000BF75
:100D2000034989690122D20311409142F8D17047E9
:100D30000000014001005A5A704700000449096848
:100D4000044A1140044A89180143014A116070475E
:100D500000000140E7FF000000005A5A70B5044649
:100D600007480068074908400749401820430449DC
:100D7000086000F00BF8054600F074F870BD000044
:100D800000000140F8FF000000005A5AF8B50025A5
:100D9000002700240026002000902D480068470707
:100DA0007F0F2B4880694004040F2948806A800720
:100DB000800F00902648806AC005C60E3B0000F0F8
:100DC000DFF905040C130E103400A000214A11585D
:100DD0002148FFF78FF905462FE0204D2DE0204DEB
:100DE0002BE00125ED0328E00098002804D001281D
:100DF00003D003280ED104E000BF18483546454310
:100E000011E0A000134A11581348FFF773F970431B
:100E1000054608E0A0000F4A11580F48FFF76AF98D
:100E20007043054600BF00BF07E0A000094A115803
:100E30000948FFF75FF9054600BF00BF0448006896
:100E40000006410F2846C84005462846F8BD000068
:100E5000000001407C130000006CDC020024F40060
:100E60002080000001490860704700000000002059
:100E70007047704770477047034800680349097816
:100E80004018014908607047080000201000002049
:100E9000014802490860704700127A0000000020F3
:100EA00000B5FFF7F5FF9321490209884805400D79
:100EB00009498969C90AC9020143074A9161932115
:100EC000490249888805800D1146096A890A890204
:100ED0000143116200BD00000000014010B5FFF7A2
:100EE0006DFD10BD10B50421094800F05FF8002821
:100EF00003D00421064800F055F80221044800F010
:100F000055F8012803D10221014800F04BF810BD2B
:100F10000038014010B50421044800F047F80028CB
:100F200003D00421014800F03DF810BD004400400A
:100F30007047000000B587B04B20000201900021EF
:100F400068460181418111480390684601824182CF
:100F5000818201830321C18201A90D4800F03CF880
:100F60004B20000201900021684601814181074821
:100F70000390684601824182818201830321C182FC
:100F800001A9044800F028F807B000BD00366E0142
:100F9000003801400044004010B5FFF70DFCFFF79A
:100FA000C9FF10BD026A8A43026270470246D069D7
:100FB0000840002801D0012070470020FCE710B550
:100FC000002A03D083680B43836004E08368CC432A
:100FD000A4B22340836010BDF0B589B005460C462D
:100FE0000026002008900027A088A1890843E189F5
:100FF0000843218A0843618A08432968514A1140FD
:1010000008432860E088A18A08436968C3229200E7
:10101000914308436860A08800282FD12168080107
:10102000FFF718FA0790A068FFF714FA06900799DF
:10103000FFF71EF907463846FFF713FA86B2304627
:10104000FFF708FA39460190FFF7D1F88321C90567
:101050000290FFF7D0F80390FFF736FA00223A4BE0
:1010600005910490FFF742F907910690FFF70EFAF9
:1010700080B20890EE600898286160E0A0880121A5
:10108000490288421BD12168C800FFF7E3F90290AA
:10109000A068FFF7DFF901900299FFF7E9F80390E4
:1010A000FFF712FA0022284B05910490FFF71EF972
:1010B00007910690FFF7EAF986B2EE603FE0A0885C
:1010C0000121890288421BD121688800FFF7C2F9FB
:1010D0000290A068FFF7BEF901900299FFF7C8F8E7
:1010E0000390FFF7F1F90022174B05910490FFF7E9
:1010F000FDF807910690FFF7C9F986B2EE601EE091
:101100002068FFF7A7F90290A068FFF7A3F98721ED
:10111000C9050090FFF76FF801900299FFF7A8F852
:101120000390FFF7D1F90022074B05910490FFF7D8
:10113000DDF807910690FFF7A9F986B2EE6009B0D5
:10114000F0BD0000C0F8FFFF0000E03F70477047AF
:1011500070472021020C01D010211046020A01D054
:1011600010460839020901D01046091F820801D033
:101170001046891E420801D0881E7047081A704721
:1011800030B47446641E2578641CAB4204D3635D9E
:101190005B00E31830BC18471D46F8E7002805DB64
:1011A000C206D20E01219140014A11607047000031
:1011B00080E200E010B5002819DB1A4A03231B0265
:1011C000D21883089B00D2588307DC0EFF23A3406C
:1011D0009A438B071B0E8407E40EA3401A43114B5E
:1011E000032424021B198408A4001A5118E00E4A93
:1011F00003071B0F083B9B089B00D2588307DC0E9C
:10120000FF23A3409A438B071B0E8407E40EA340E1
:101210001A43054B0407240F083CA408A4001A51E4
:1012200010BD000000E100E01CED00E002E008C895
:10123000121F08C1002AFAD170477047002001E050
:1012400001C1121F002AFBD17047000070B505468E
:10125000114812494861002088610520086110E0AA
:1012600000200E4988617D21C9000D480068FEF705
:1012700041FF012109060C1A00BF08488069A042FD
:10128000FBD828466D1E0028EAD1044800694008B2
:1012900040000249086170BDFFFFFF0000E000E070
:1012A000000000201FB501211020FFF7D3FC012111
:1012B0002020FFF7CFFC1021009808430090202049
:1012C00001900020039069460920C006FFF7D2FA7A
:1012D0001FBD00001FB501212020FFF7BBFC01212D
:1012E0004802FFF7B7FC0320800200902120019004
:1012F0001248039069461248FFF7BCFAC0200090DC
:10130000212001900D48039069460E48FFF7B2FA7C
:10131000012291020A48FFF72DFB0122D102084861
:10132000FFF728FB012240210648FFF723FB01229B
:1013300080210448FFF71EFB1FBD0000FFFF0000D7
:101340000004004800140048FFF7B4FCFFF762FCFB
:101350006420FFF77BFFFFF71FFEFFF7A3FFFFF7F8
:10136000B9FFFFF775FCFFF7B9FD01220421024820
:10137000FFF725FE00BFFEE7004400400600000026
:101380000600000006000000060000000600000045
:101390000600000001000000030000000200000041
:1013A0000400000006000000080000000A00000021
:1013B0000C0000000E00000010000000808D5B009B
:1013C000001BB700002D310101366E0180A812010B
:1013D00000366E0100512502006CDC0201A24A04B5
:1013E0000014000000000020140000002C12000077
:1013F0001414000014000020040200003C1200003D
:1014000000127A000000000000000000040000004C
:0414100001000000D7
:04000005000000C136
:00000001FF
