:020000040000FA
:10000000D01D002051010000DF0C0000690C000031
:1000100000000000000000000000000000000000E0
:10002000000000000000000000000000030F0000BE
:1000300000000000000000000F010000050F00009C
:10004000E5110000DD0C0000FD0E0000610900005C
:10005000C50D000063090000650900006709000084
:1000600069090000590900005B0900005D090000F2
:100070008D070000D9070000E1110000E311000026
:10008000350B0000390B0000550B0000B90B0000C8
:100090000D09000029090000450900006D0C000051
:1000A0006F0C0000FF0E0000010F00007D0F00002C
:1000B000AD0F0000C90F0000F10700005F0900004C
:1000C0000448854600F036FB00480047091500004B
:1000D000C046C046D01D0020084B19680868203073
:1000E00080F30988022080F31488BFF36F8F3FBC30
:1000F000AE4608BC04BC62B61847000028000020C9
:10010000EFF3108072B6704780F310887047EFF3FA
:1001100009800E4B1A6820381060F0C044464D46E6
:1001200056465F46F0C008B572B602F085F962B671
:100130000CBC116808681030F0C8A046A946B24649
:10014000BB4680F309882038F0C8184728000020F3
:100150000448804704480047FEE7FEE7FEE7FEE765
:10016000FEE7FEE7390F0000C100000030B50B4686
:10017000014600202022012409E00D46D5409D4281
:1001800005D31D469540491B254695404019154607
:10019000521E002DF1DC30BD03460B439B0703D0FC
:1001A00009E008C9121F08C0042AFAD203E00B783C
:1001B0000370401C491C521EF9D27047D2B201E0B4
:1001C0000270401C491EFBD270470022F6E710B5B2
:1001D00013460A4604461946FFF7F0FF204610BDB5
:1001E000F8B502464A40D40F42004B0052085B0863
:1001F0009A4202D20246084611464A0023D0C30D55
:100200004A00DDB2120EAD1A202D35DA4902012660
:10021000490AF6058A19002C00D0524220214F1BB2
:100220001146B9402A411018C20D9A4221D0002C23
:1002300017D0012D08DCDA05801AD20F8019D207F9
:10024000DBB200F0DFF9F8BDDA05801A01234000C7
:100250001B06C01880185A428018CA0F1043490064
:1002600007E04908C2071143DA05801A80194008DF
:10027000801800F0BFF9F8BD61000122511A001B7F
:10028000F7E70122D2075140AAE70122D2075040E6
:10029000A6E7024670B54A40D30FDB0740002DD0D9
:1002A0004A002AD0010E140E000212020919400A57
:1002B000520A8418E50104465443000A120A2E0427
:1002C0005043A4194219200CC543AA18120C012549
:1002D000AD03521C521912047F39240400D0521C61
:1002E000104301D44000491EC2B20C06C0092018B8
:1002F000401C4008802A02D003E0002070BD400866
:100300004000002900DA0020184370BD70B5024695
:100310004A40D50F40004A00ED0740085208002827
:1003200014D0002A12D0C40DD30D41020120C00503
:100330005202490A520AE41A091812187D349142ED
:1003400001D3641C00E04900002C01DA002070BDDC
:100350000023914201D3891A034340084900002831
:10036000F7D100290AD0914202D10121C90705E045
:10037000914201D2012101E00121C943E005C018E9
:10038000401900F037F970BDF0B5074608465840EF
:1003900087B0C00F049048000E4659004008490835
:1003A000BC1A884105D2384631461E4617460B46D0
:1003B00002465800400810434DD0300D03904005D0
:1003C0005900400D490D0590401A0290402873DAFB
:1003D00018030121000B09050843019004980092BD
:1003E000002806D01146019A494200209041009110
:1003F0000190029840210A1A0199009800F0C6F86D
:1004000005460C466B4607CB00F0E1F8C019714178
:10041000039A0E0D0023D71756401A467A4016430A
:1004200044D0049A002A2DD0029A012A039A15DC9E
:100430001205C01A914101263605001C7141D20FE8
:10044000059ED2070093019202962A46234600F0A9
:100450001FF907B0F0BD38463146FAE71605234AC2
:100460000F46B218C01AB74101210905001C4F41BF
:1004700000187F41114618187941E20F10436D1999
:10048000644113E0E2076D0815436408C207144392
:10049000039A01261205C01A91413605001C7141CC
:1004A000CE07400830434908C01851412A46234628
:1004B00000F0E1F8CDE7FFE7049801224000C11702
:1004C000121A00238B4104983146C417381AA141EF
:1004D000EEE730B40124E407634030BC54E730B4A5
:1004E0000124E407614030BC4EE700000000E0FF5B
:1004F00010B500229623114600F084F810BD41008B
:1005000040020122400AD205090E80187F2901DA33
:1005100000207047962903DC9622511AC840704784
:1005200096398840704700004A0009030123090BEF
:100530001B051943094B10B5520D9A4201DA0020F0
:1005400010BD064B34339A4203DC9A1A00F02EF8A1
:1005500010BD03495118884010BD0000FF03000082
:10056000CDFBFFFFC20FD207400040080BD0C10DEA
:100570000723DB01C91840020905400A1143C208DC
:1005800040071143704700200146704710B5202AEC
:1005900004DB0146203A9140002010BD9140202309
:1005A0009C1A0346E3401943904010BD10B5202A21
:1005B00004DB0846203AD040002110BD0B46D34052
:1005C000D0402024A21A91400843194610BD10B50E
:1005D000202A06DBCB170846203A1041C1170B43EF
:1005E00006E00B461341D0402024A21A9140084354
:1005F000194610BD002904DA401C490001D1400809
:100600004000704770B40024050C05D1102400048C
:1006100002D1002921D01124050E01D10002083495
:10062000050F01D10001241D850F01D18000A41CFC
:10063000002801DB4000641C002908D020252E1B67
:100640000D46F540A14000D0012129430843010691
:100650001B1B000ADB1D02D5002070BC7047DB05A8
:10066000181880180029F8DA401C4900F5D170BC30
:1006700040084000704710B5002B08DA0024401CE9
:10068000614192185B411A4301D14008400010BDFE
:10069000F0B51FB482B005460C0003D0084600F048
:1006A000B3FD02E000F0B0FD20300246009021468C
:1006B0002846FFF76BFF049B059A04460F46184334
:1006C0001143084314D0184610431BD00098402112
:1006D0000A1A18460599FFF769FF05460E46009A63
:1006E00005990498FFF752FF084305D0012004E064
:1006F0002046394607B0F0BD0020C11705430E4320
:100700002C43374300990E986305401A7905E40A93
:1007100000220C43FD0A0A3002D500200146E9E719
:100720000105101969410C9C0D9D00196941FFF7E5
:10073000A2FFDFE7064C0125064E05E0E36807CC83
:100740002B430C3C98471034B442F7D3FFF7BCFC62
:10075000542D0000742D0000C2698A43C2617047A5
:100760000348806BC009C0010149886370470000DD
:10077000002401400148006A80B270470024014013
:100780000149C96B017070470024014008B56846F3
:10079000FFF7F6FF00BF68460078C007C00F0028CB
:1007A000F9D0FFF7E7FF02490880FFF7D9FF08BD3E
:1007B0001A000020C143014A51617047002C0140DA
:1007C0000146044800690840002801D00120704714
:1007D0000020FCE7002C014010B501200004FFF7C9
:1007E000EFFF002803D001200004FFF7E3FF10BD56
:1007F000704700007CB5012401F03AFC1A48012141
:10080000002364220091019018A11B4801F0F4FF1D
:100810000446012C02D119A000F0E6FC1C4803217B
:1008200000236422009101901AA11D4801F0E4FF09
:100830000446012C02D11BA000F0D6FC01F056FEAC
:10084000054629461CA000F0CFFC2548006801F0B1
:10085000F9FC01F04BFE0546294622A000F0C4FC3D
:1008600001F014FC7CBD0000080000207465737466
:100870005461736B310000007D1F0000437265619D
:100880007465207461736B31206F6B0D0A0000007A
:100890000C000020746573745461736B32000000A7
:1008A000B91F0000437265617465207461736B3217
:1008B000206F6B0D0A0000004265666F7265205460
:1008C00061736B44656C6574652046726565486547
:1008D000617053697A652069732025640D0A0000F0
:1008E000040000204166746572205461736B446596
:1008F0006C65746520467265654865617053697AF8
:10090000652069732025640D0A00000010B50121DF
:10091000044800F018F8002803D001210148FFF72F
:100920001BFF10BD0048014010B50121044800F034
:100930000AF8002803D001210148FFF70DFF10BD80
:10094000004901407047024690690840002801D0E4
:10095000012070470020FCE77047704770477047E0
:100960007047704770477047704700001FB50121FE
:10097000102000F0B5F90121202000F0B1F901218B
:10098000480200F0CDF90121802000F0B9F90920DA
:10099000C006406900090001801C0921C9064861A0
:1009A00008464069F021884320300921C906486182
:1009B0001B488069F0218843103019498861084636
:1009C000806900090001401C8861FF20013000900F
:1009D000202001901348039069460920C00600F0CA
:1009E00023F801204002009011200190694609205F
:1009F000C00600F019F8022000902020019009485C
:100A000003906946064800F00FF80120009011207D
:100A10000190044803906946014800F005F81FBDA5
:100A200000040048FFFF00004A68002A04D1C269A0
:100A30000B681A43C26174E0C2690B689A43C261D1
:100A400010234A681A40102A4ED102680B681A43D4
:100A500002604A68112A07D102690B681A430261D1
:100A6000C2680B689A43C2604A68122A07D1C268FA
:100A70000B681A43C26002690B689A430261426ABA
:100A80000B689A434262826A0B689A438262C26A26
:100A90000B689A43C262026B0B689A43026381231C
:100AA0008A681A40812A03D1426A0B681A4342625B
:100AB00082238A681A40822A03D1826A0B681A4309
:100AC000826284238A681A40842A03D1C26A0B682E
:100AD0001A43C26288238A681A40882A21D1026B8D
:100AE0000B681A4302631CE002680B689A430260B9
:100AF0004A68202A04D142680B689A43426003E0A6
:100B000042680B681A434260064BCA689A4204D195
:100B100082680B681A43826003E082680B689A431C
:100B200082607047FFFF0000012A01D1C16500E02B
:100B3000816570477047000010B50121044800F03E
:100B400050F8002803D00121014800F036F810BD0C
:100B50000010004010B50121044800F042F80028C0
:100B600003D00121014800F028F810BD00400140E9
:100B700000B585B00121880200F0D2F80020009075
:100B80000190FF20813003900948049000206946BD
:100B90000872084800F048F801221146054800F0A4
:100BA0002CF80121034800F00EF805B000BD00004C
:100BB0002F750000004001407047CA4303231B0209
:100BC000C318DA61704703221202821812695208B0
:100BD0005200CB07DB0F1A4303231B02C3181A6111
:100BE0007047024603200002101880690840002860
:100BF00001D0012070470020FCE710B5002A09D081
:100C000003231B02C3185B690B430324240204194A
:100C1000636108E003231B02C3185B698B43032451
:100C200024020419636110BD10B54B68CA681A43E9
:100C30000B681A430B7A002B01D0402300E00023FD
:100C40001A4303231B02C3181B69064C23401A4393
:100C500003231B02C3181A6103231B02C3180A696A
:100C60001A6010BD19F8FFFF00BFFEE7704770471C
:100C700070B50546154801787D20C000FFF776FA6B
:100C8000064631462846FFF771FA0446601E1049B1
:100C9000884201D901200CE0601E0E494861032101
:100CA000081F00F0D7FA00200A4988610720086170
:100CB0000020002800D070BD0021481E00F0CAFAB4
:100CC00000200549086000BFF5E70000240000206F
:100CD000FFFFFF0000E000E02000002070477047A9
:100CE000002905D0054A126B0243044B1A6304E045
:100CF000024A126B8243014B1A63704700000140A5
:100D0000002905D0054A926B0243044B9A6304E024
:100D1000024A926B8243014B9A6370470000014084
:100D2000002905D0054A526B0243044B5A6304E084
:100D3000024A526B8243014B5A63704700000140E4
:100D400010B5082000F024F8002000F04DF8002035
:100D500000F00EF8002000F037F804480068FFF7B4
:100D600087FF01210220FFF7BBFF10BD000000201C
:100D700004490968044A1140044A89180143014A98
:100D800011607047000001401FFF000000005A5A28
:100D9000C1029322520212881143084A91611146FE
:100DA0004968074A1143054A516000BF03498969F0
:100DB0000122D20311409142F8D170470000014056
:100DC00001005A5A7047000004490968044A11405A
:100DD000044A89180143014A11607047000001402C
:100DE000E7FF000000005A5A70B504460748006843
:100DF000074908400749401820430449086000F0AB
:100E00000BF8054600F074F870BD000000000140CA
:100E1000F8FF000000005A5AF8B50025002700240A
:100E20000026002000902D48006847077F0F2B48C0
:100E300080694004040F2948806A8007800F009071
:100E40002648806AC005C60E3B0000F0F4F9050490
:100E50000C130E103400A000214A11582148FFF74E
:100E600085F905462FE0204D2DE0204D2BE0012592
:100E7000ED0328E00098002804D0012803D00328BF
:100E80000ED104E000BF18483546454311E0A000EC
:100E9000134A11581348FFF769F97043054608E0F3
:100EA000A0000F4A11580F48FFF760F9704305463C
:100EB00000BF00BF07E0A000094A11580948FFF72A
:100EC00055F9054600BF00BF044800680006410F01
:100ED0002846C84005462846F8BD000000000140ED
:100EE000F02C0000006CDC020024F40020800000E4
:100EF00001490860704700000000002070477047FB
:100F00007047704710B5FFF7FBF8044601F0BEFCD0
:100F1000002803D001200007024948602046FFF75F
:100F2000F3F810BD00ED00E0014802490860704789
:100F300000127A000000002000B5FFF7F5FF9321B2
:100F4000490209884805400D09498969C90AC90249
:100F50000143074A91619321490249888805800D20
:100F60001146096A890A89020143116200BD000025
:100F70000000014010B5FFF7FBFD10BD10B50421C6
:100F8000094800F068F8002803D00421064800F062
:100F900055F80221044800F05EF8012803D102212F
:100FA000014800F04BF810BD0038014010B5042195
:100FB000044800F050F8002803D00421014800F054
:100FC0003DF810BD004400407047000000B587B0F8
:100FD0004B200002019000216846018141811148A7
:100FE0000390684601824182818201830321C1828C
:100FF00001A90D4800F038F84B20000201900021B3
:101000006846018141810748039068460182418218
:10101000818201830321C18201A9044800F024F8E0
:1010200007B000BD00366E010038014000440040AA
:1010300010B5FFF79BFCFFF7C9FF10BD026A8A439A
:10104000026270470246D0690840002801D00120A2
:1010500070470020FCE70246D0690840002801D014
:10106000012070470020FCE7F0B589B005460C462A
:101070000026002008900027A088A1890843E18964
:101080000843218A0843618A08432968514A11406C
:1010900008432860E088A18A08436968C322920057
:1010A000914308436860A08800282FD12168080177
:1010B000FFF71EFA0790A068FFF71AFA0690079943
:1010C000FFF724F907463846FFF719FA86B230468B
:1010D000FFF70EFA39460190FFF7D7F88321C905CB
:1010E0000290FFF7D6F80390FFF73CFA00223A4B44
:1010F00005910490FFF748F907910690FFF714FA5D
:1011000080B20890EE600898286160E0A088012114
:10111000490288421BD12168C800FFF7E9F9029013
:10112000A068FFF7E5F901900299FFF7EFF8039047
:10113000FFF718FA0022284B05910490FFF724F9D5
:1011400007910690FFF7F0F986B2EE603FE0A088C5
:101150000121890288421BD121688800FFF7C8F964
:101160000290A068FFF7C4F901900299FFF7CEF84A
:101170000390FFF7F7F90022174B05910490FFF752
:1011800003F907910690FFF7CFF986B2EE601EE0F3
:101190002068FFF7ADF90290A068FFF7A9F9872151
:1011A000C9050090FFF775F801900299FFF7AEF8B6
:1011B0000390FFF7D7F90022074B05910490FFF742
:1011C000E3F807910690FFF7AFF986B2EE6009B039
:1011D000F0BD0000C0F8FFFF0000E03F81627047F3
:1011E00070477047704700000FB410B503A9044B57
:1011F000044A029800F07AF810BC08BC04B0184702
:101200003D1400009C0000202021020C01D0102180
:101210001046020A01D010460839020901D01046D2
:10122000091F820801D01046891E420801D0881E7D
:101230007047081A704730B47446641E2578641CE1
:10124000AB4204D3635D5B00E31830BC18471D4616
:10125000F8E7000010B5002819DB1A4A03231B0227
:10126000D21883089B00D2588307DC0EFF23A340CB
:101270009A438B071B0E8407E40EA3401A43114BBD
:10128000032424021B198408A4001A5118E00E4AF2
:1012900003071B0F083B9B089B00D2588307DC0EFB
:1012A000FF23A3409A438B071B0E8407E40EA34041
:1012B0001A43054B0407240F083CA408A4001A5144
:1012C00010BD000000E100E01CED00E002E008C8F5
:1012D000121F08C1002AFAD170477047002001E0B0
:1012E00001C1121F002AFBD170470000FFB58DB06D
:1012F0000446002506E025280AD0109A0F99904749
:10130000641C6D1C20780028F5D1284611B0F0BD72
:1013100000270121484A009700E00743641C237816
:101320000846203B98401042F7D120782E2817D14C
:10133000042007436078641C2A280CD10E98641C92
:1013400002C800910E900BE000990A2251433039F7
:101350004018641C00902078014630390929F3D9DF
:1013600020780028D1D0642808D0692806D07528B4
:101370001ED0109A0F9990476D1C5BE00A200E99C1
:10138000019001C90E91002802DA40422D2102E0AD
:10139000390504D52B216A461172012103E0F907B2
:1013A00004D02021F7E70BAE0B910DE00021FAE706
:1013B0000A200E99019001C90E91F7E70199FEF7F5
:1013C000D5FE3031761E31700028F7D103A8801B7E
:1013D00020300190780701D5009801E001200090AD
:1013E0000199884201DD401A00E0002000270090AA
:1013F00006E002A8109AC05D0F9990476D1C7F1CF3
:101400000B988742F5DB04E0109A30200F99904743
:101410006D1C0099481E00900029F5DC05E030782D
:10142000109A761C0F9990476D1C0199481E0190E7
:101430000029F4DC641C65E70928010070B5044646
:101440000D46E1B20548FFF7C9FE00BF0121034880
:10145000FFF7F8FD0028F9D0204670BD0044004099
:101460001FB501211020FFF73BFC01212020FFF7D1
:1014700037FC182100980843009020200190044870
:10148000039069460920C006FFF7CEFA1FBD000091
:10149000FFFF00001FB501212020FFF721FC0121E3
:1014A0004802FFF71DFC03208002009021200190DC
:1014B0001248039069461248FFF7B6FAC020009020
:1014C000212001900D48039069460E48FFF7ACFAC1
:1014D000012291020A48FFF727FB0122D1020848A6
:1014E000FFF722FB012240210648FFF71DFB0122E6
:1014F00080210448FFF718FB1FBD0000FFFF00001C
:1015000000040048001400481CB5FFF719FCFFF761
:101510008FFDFFF7A5FFFFF7BDFFFFF72BFD0124B0
:101520000948012100234A020091019007A10B48BC
:1015300001F062F90446012C04D109A0FFF754FE22
:1015400000F032FF00BFFEE704000020417070543D
:1015500061736B437265617465000000F5070000FC
:10156000437265617465207461736B206F6B2C200E
:101570005374617274207468652073636865647560
:101580006C65720D0A000000F8B505460E4621484C
:10159000076821480068001D00F018FD681C00283D
:1015A0001CD1002E1AD01D4948681B490968886063
:1015B000194982680968CA6017490968091D826863
:1015C000516015490968091D8160144A124909686A
:1015D0004A6111460968491C11601AE07C190E48DD
:1015E00000684460BC4207D20B480168091D0C48E2
:1015F000006800F016FD0CE007480168091D094865
:10160000006800F00EFD08480068844201D20648D8
:101610000460F8BD3C000020280000209401002058
:10162000300000202C0000205800002010B5044697
:1016300000F01EFD2D480068401C2C4908602C4815
:101640000068002808D12A4804600846006801287C
:101650000ED100F09DF90BE026480068002807D164
:1016600023480068C06AE16A884201D820480460C3
:1016700021480068401C20490860084600686064F2
:101680001E49E06A0968884202D91C49E06A08607C
:101690001422E16A51431A4A89184868A060826896
:1016A000E260211D8268516081601422E16A514329
:1016B000134A8A1862611422E16A5143104A515850
:1016C000491C1423E26A5A430D4B995000F0DEFC8A
:1016D00008480068002807D005480068C06AE16A29
:1016E000884201D200F030FD10BD0000380000201B
:1016F000280000204400002054000020400000206A
:10170000E000002010B500F0B3FC1148006800288C
:101710001BD1104800F075FC0F4800F072FC0D481A
:101720000E4908600C480E49086000220C21052073
:1017300000F0FEFE0649086008460068002804D054
:1017400008A10348006800F00BFD00F09FFC10BDED
:1017500070000020A8010020BC01002068000020CB
:101760006C000020546D72510000000010B516E0AE
:1017700000F07EFC0C48C068C468201D00F026FC08
:101780000A480068401E0949086009480068401E70
:101790000749086000F07AFC204600F021F8044870
:1017A00000680028E4D110BD80010020380000202E
:1017B0003400002070B504460D46206C00280ED081
:1017C000216CE0684118E160A168E068884201D3BB
:1017D0002168E1602846226CE168FEF7DDFC70BDFF
:1017E00010B50446206B00F065FC204600F062FC5A
:1017F00010BD00000146094A12681268002A01D192
:10180000012200E000220A600A68002A04D1034A8B
:101810001268D268106800E000207047680000205D
:1018200030B50323DB0215484407640F002C05D0B4
:10183000C01DC008C000114C041B1B1B0246104CED
:10184000226000240E4D6C60D0180838C008C0001B
:101850000C4C206000240B4D2D686C60094D2D68E8
:101860002C601146441A4C60064C24680C60064DEE
:101870004C682C60054D4C682C6030BDD0010020B8
:101880007C000020840000208C00002088000020C4
:1018900000BFFFF76BFF034800680128F9D900F08B
:1018A00053FCF6E7E0000020FFB581B006460D4688
:1018B00017460A9C002D01D1246000E02760E663F2
:1018C00025640121204600F064FE4C21049808554F
:1018D00005B0F0BDFFB581B00F460A9E0C9C039A7F
:1018E0009100A522206BFEF769FC216B0398401E36
:1018F0008000081800900098C008C0000090009870
:101900004007400F002801D1012000E000200028FE
:1019100002D172B600BFFEE7002F10D0002508E00C
:10192000795D204634304155785D002800D102E0D1
:101930006D1C102DF4D300BF002143200155052E4E
:1019400001D2012000E00020002802D172B600BFC1
:10195000FEE7052E00D30426E662E664201D00F0B3
:101960005DFB2046183000F059FB24610520801BE8
:10197000A0616462049A0199009800F0EFFA206077
:101980000B98002801D00B98046005B0F0BD000052
:1019900010B5002406E0142161430E4A881800F0B7
:1019A00030FB641C052CF6D30B4800F02AFB0B48D7
:1019B00000F027FB0A4800F024FB0A4800F021FB56
:1019C000094800F01EFB044808490860034808491C
:1019D000086010BDE00000204401002058010020F4
:1019E0006C01002080010020940100202C000020C8
:1019F0003000002010B50146164800E0006803687A
:101A00008B42FBD3024643689B188B4204D1436848
:101A10004C681B19436001460A464B689B180468D2
:101A2000A34211D10C4C03682468A34208D04B6830
:101A3000046864681B194B6003681B680B6005E051
:101A4000054B1B680B6001E003680B60884200D007
:101A5000016010BD7C00002084000020F8B5044621
:101A60000D4616461F460020009065602461B54271
:101A70000CD8F01BA169884202D30120009011E02C
:101A8000211D0948006800F0CCFA0BE0BE4204D2E8
:101A9000BD4202D30120009004E0211D03480068EC
:101AA00000F0BFFA0098F8BD6C000020680000202C
:101AB00070B5054600F0DCFAA86B002801D10124BE
:101AC00000E0002400F0E2FA204670BD70B5054643
:101AD0000E460E480068C068C468201D00F076FA03
:101AE0002820005D04210840002805D03246294600
:101AF000204600F0D1F805E02820005DFE210840D6
:101B0000282108552046216A884770BD68000020BA
:101B10007FB57EE0019800287BDB039C606900288C
:101B200001D1012000E00020002802D1201D00F09A
:101B30004DFA684600F0DEF8054601980300FFF70D
:101B40007AFB0A6606083139550709323A6600BF42
:101B500000BF00BF2820005D01210843282108554F
:101B60000298A269811803462A462046FFF776FFAD
:101B7000002816D02820005D04210840002807D046
:101B80000298A26981182A46204600F085F805E0EF
:101B90002820005DFE210840282108552046216AA2
:101BA000884735E000BF2820005DFE21084028213D
:101BB00008552DE000BF2820005D012108432821A1
:101BC00008550298A061A069002801D0012000E01A
:101BD0000020002802D172B600BFFEE7A0694119BB
:101BE0002B462A462046FFF739FF11E02820005DEA
:101BF00002210840002803D1204600F05BFA05E0EE
:101C00002820005DFE2108402821085500E000BF83
:101C100000BF002201A90448006800F015FD00285B
:101C200000D077E77FBD000070000020F8B50546C2
:101C30000C4600F0F9FB684600F05CF80646009898
:101C4000002822D1002C08D1B54206D800F07EFF32
:101C500031462846FFF73AFF19E0002C08D00C481F
:101C600000680068002801D1012000E0002004463F
:101C7000A91B22460748006800F09CFA00F066FFA6
:101C8000002804D100F060FA01E000F05FFFF8BD29
:101C90006C0000207000002070B504460D4616460A
:101CA00004E0A06945192046216A8847A0694119C6
:101CB0002B4632462046FFF7D1FE0028F1D170BDF9
:101CC0000A4800680068002801D1012000E00020D7
:101CD000002804D00020C0430549086005E00348FF
:101CE0000068C06800680249086070472C00002046
:101CF0005800002070B5044600F0C2FD05460748B4
:101D00000068854204D200F00BF80120206001E059
:101D10000020206001480560284670BD7800002042
:101D200070B508E00D480068C06804680021C94328
:101D30002046FFF7CBFE094800680068002801D163
:101D4000012000E000200028ECD004480568044889
:101D50000068024908600248056070BD6800002004
:101D60006C00002007480068401C002801D10120B9
:101D700000E00020002802D172B600BFFEE772B674
:101D800000BFFEE79800002008B500BF6846FFF7D7
:101D900031FD044620460099FFF748FFFFF7B8FEE3
:101DA000F4E770B5044600F063F94520055713E0E9
:101DB000606A002801D1012000E00020002808D13D
:101DC0002046243000F03EFE002803D000F0A4FAA4
:101DD00000E003E0681E45B2002DE9DC00BF0021F1
:101DE000C9434520015500F051F900F041F9442064
:101DF000055713E02069002801D1012000E00020F0
:101E000000280AD12046103000F01CFE002801D026
:101E100000F082FA681E45B200E001E0002DE9DC26
:101E200000BF0021C9434420015500F02FF970BDC7
:101E3000FEB505460020019000F0F6FA4248006821
:101E4000002801D1FFF7ECFC002D13D06807400FEC
:101E50001021081A00900021C9430098081AA842CE
:101E600001D2012000E00020002802D100982D18A6
:101E700000E00025E817401C00284ED0002D4CD073
:101E800032480068854248D8314E3046046801E047
:101E9000264624686068A84202D220680028F7D14C
:101EA00029480068844238D03068083001902068A2
:101EB00030606068401B102813D967197807400FFD
:101EC000002801D1012000E00020002802D172B6D4
:101ED00000BFFEE76068401B786065603846FFF72A
:101EE00089FD1A4960680968081A18490860084697
:101EF000006818490968884203D2144800681549E7
:101F000008600121C9076068084360600020206004
:101F100011480068401C1049086000F017FE019845
:101F2000002801D100F066F801984007400F002812
:101F300001D1012000E00020002802D172B600BFCC
:101F4000FEE70198FEBD000084000020880000200C
:101F50007C0000208C00002090000020001F012346
:101F60001B060360001F0160001F034B0360143851
:101F70000260203870470000651D000000F0B6FACE
:101F80000446214605A0FFF72FF900BF08200949A4
:101F90000862052000F034F9F8E700004672656534
:101FA0004865617053697A652069732025640D0A5C
:101FB000000000004000004800BF102002490862F5
:101FC000142000F01DF9F8E74000004801460A69B6
:101FD0004B68886898608B68486858605068884289
:101FE00001D188685060002008611068401E1060B0
:101FF0001068704772B600BFFEE772B600BFFEE71A
:1020000070470146083141600021C94381600146A3
:102010000831C16001610021016070470021016148
:10202000704710B502460B685C1C002C01D110698A
:1020300007E01046083000E04068446824689C428D
:10204000FAD944684C604C68A160886041600A61BC
:102050001468641C146010BD42684A6093688B6009
:10206000936859609160086103685B1C0360704766
:1020700072B605480068401C03490860BFF34F8FE3
:10208000BFF36F8F70470000980000200848006879
:10209000002802D172B600BFFEE705480068401E66
:1020A0000349086008460068002800D162B67047FE
:1020B0009800002070B506463546002E30D0083D09
:1020C0002C466068C00F002802D172B600BFFEE740
:1020D0002068002801D1012000E00020002802D162
:1020E00072B600BFFEE76068C00F002818D02068F5
:1020F000002815D1606840004008606000F094F945
:102100000849606809684018064908602046FFF7DA
:1021100071FC05480068401C0349086000F016FD8A
:1021200070BD0000880000209400002000200449B9
:102130000861886103484861072008617047000012
:1021400000E000E0BF5D0000012000070349486097
:10215000BFF34F8FBFF36F8F7047000000ED00E0BB
:1021600030B502460B460021002A02D172B600BFEC
:10217000FEE7002B17D0002012E0C4000C4D6419BC
:102180006468944202D1C40061190BE0002906D1B1
:10219000C400074D2C59002C01D1C4006119401C0A
:1021A0000828EAD300BF002901D00B604A6030BD87
:1021B000A0000020F8B505460E4617462C46FFF74E
:1021C00057FF44210857401C002802D10021442019
:1021D000015545210857401C002802D10021452007
:1021E0000155FFF753FFA06B002805D13A46314651
:1021F0002046243000F0ACF82046FFF7D2FDF8BDB1
:1022000070B504460025002C14D00D480068002845
:1022100001D1012000E00020002802D172B600BFE9
:10222000FEE700F001F900212046FFF7ADF900F0CC
:102230008DFC0546002D01D1FFF786FF70BD000023
:102240006400002070B50546FFF712FF002D02D193
:102250002448006800E028460446201DFFF7B6FE2B
:10226000A06A002803D020461830FFF7AFFE1E48B2
:102270000068401C1C4908601A480068844209D163
:10228000211D1A48FFF7E8FE19480068401C18494C
:10229000086006E017480068401E16490860FFF70E
:1022A0000FFDFFF7F3FE0F480068844202D020467E
:1022B000FFF796FA10480068002811D00948006816
:1022C00084420DD10D480068002801D1012000E0B2
:1022D0000020002802D172B600BFFEE7FFF734FFEE
:1022E00070BD000028000020540000208001002064
:1022F000340000203800002044000020640000204A
:10230000034909680160034909684160704700009A
:10231000500000203C000020012001490860704767
:102320004C00002070B504460D46002C02D172B658
:1023300000BFFEE70548016818312046FFF771FE2F
:1023400001212846FFF720F970BD00002800002079
:1023500070B504460E461546002C02D172B600BF79
:10236000FEE760680F490968C8610E49826809681C
:102370000A620C4909681831826851600949096884
:1023800018318160074909688C622168491C216005
:10239000002D01D00026F64329463046FFF7F4F819
:1023A00070BD0000280000201CB5174800210B4616
:1023B0003C220091019015A1164800F01DFA044638
:1023C000012C02D100F070FC0446012C0DD172B634
:1023D0000020C04310490860012010490860002017
:1023E0000F49086000F088F80AE0601C002801D05E
:1023F000012000E00020002802D172B600BFFEE7F5
:10240000084800681CBD00005C00002049444C45A1
:102410000000000091180000580000204400002037
:102420003C0000206000002002480068401C014978
:10243000086070476400002070B5264800680028D6
:1024400003D001202449086043E0002022490860AD
:1024500022480068046B224D29462068884208D132
:102460006068884205D1A068884202D1E06888424D
:1024700005D01A48016834310068FFF7BEFD1948DD
:10248000016805E0002902D172B600BFFEE7491ECF
:1024900014204843144A1058002801D1012000E0BC
:1024A00000200028EED114224A430F4BD018426876
:1024B00052684260024608324368934202D1426841
:1024C000526842604268D268044B1A600548016055
:1024D00000BF70BD640000204C00002028000020D8
:1024E000A5A5A5A540000020E00000200148006847
:1024F000704700008800002010B50B48006AFF21DB
:1025000009040843084908620846006AFF210906D1
:10251000084305490862FFF709FE002003490860E7
:10252000FDF7DAFD002010BD00ED00E0980000206E
:10253000F7B582B005460E460024002D21D029466D
:10254000601EFDF713FEB0421BD328467043502196
:10255000C943884215D82F46774338465030FFF795
:1025600067FC0446002C11D00194019C2046503099
:102570000190009431462846049B019AFFF794F994
:1025800004E0002C02D172B600BFFEE7204605B081
:10259000F0BDF8B505460E4601272C46002C02D1A9
:1025A00072B600BFFEE7002C41D0E06B00283ED0A1
:1025B0000020C043E16BFDF7D9FD216C884236D382
:1025C000FFF756FD216CE06B484321684018A0607E
:1025D0000020A06320686060E06B401E216C4843CF
:1025E00021684118E1600021C9434420015545207C
:1025F0000155002E10D12069002801D1012000E0F2
:102600000020002810D12046103000F01BFA0028CE
:102610000AD0FFF799FD07E020461030FFF7F1FCE4
:1026200020462430FFF7EDFCFFF730FD00E00027E7
:10263000002F01D0012000E00020002802D172B656
:1026400000BFFEE73846F8BDF7B584B005460E4634
:10265000002003902C46002C02D172B600BFFEE78A
:10266000002E02D1206C002801D1012000E00020C2
:10267000002802D172B600BFFEE700F0EFF8002894
:1026800002D10698002801D1012000E00020002896
:1026900002D172B600BFFEE700BFFFF7E9FCA76BEF
:1026A000002F1AD031462046FFF784F8781EA06329
:1026B0002069002801D1012000E00020002807D176
:1026C0002046103000F0BEF9002801D0FFF73CFD95
:1026D000FFF7DCFC012007B0F0BD0698002803D10D
:1026E000FFF7D4FC0020F6E70398002804D101A8E6
:1026F000FFF706FE01200390FFF7C8FCFFF794FEEA
:10270000FFF7B6FC44210857401C002802D10021E5
:102710004420015545210857401C002802D10021C2
:1027200045200155FFF7B2FC06A901A800F028F8E2
:10273000002819D12046FFF7BBF900280ED020460B
:1027400024300699FFF7EEFD2046FFF72AFB00F044
:10275000FDF90028A1D1FFF7F7FC9EE72046FFF71F
:1027600020FB00F0F3F998E72046FFF71AFB00F092
:10277000EDF92046FFF79CF900288ED00020AAE74B
:1027800070B505460C46002D02D172B600BFFEE7BB
:10279000002C02D172B600BFFEE7FFF769FC1448B7
:1027A00002686868131A2068401C002801D10026BE
:1027B00019E0104928680968884206D06868904284
:1027C00003D80126002020600DE02068984207D938
:1027D0002068C01A20602846FFF792FD002602E01C
:1027E000002020600126FFF751FC304670BD00003C
:1027F0003C00002050000020FFB585B01746B8000F
:10280000FFF716FB0646002E0FD05C20FFF710FBEB
:102810000446002C05D05C212046FDF7D6FC26633B
:1028200004E03046FFF746FC00E00024002C10D006
:1028300000220F990E986B4613C303923A46089BE9
:1028400006990598FFF746F82046FEF7EFFE0125AA
:1028500001E00025ED43284609B0F0BD06490968AE
:10286000002901D1012006E004490968002901D1AD
:10287000022000E000207047440000206400002097
:1028800001490868704700003C000020F8B50020AE
:1028900000906148006800287ED160480068451CAF
:1028A0005E480560002D1CD15D4800680068002866
:1028B00001D1012000E00020002802D172B600BF43
:1028C000FEE757480768574800685549086055486B
:1028D000076055480068401C53490860FFF7F0F94D
:1028E00000BF52480068854275D300BF4C4800685D
:1028F0000068002801D1012000E00020002804D059
:102900000020C0434949086064E045480068C06849
:10291000C4686668B54202D2444806605AE06069FD
:10292000E268A1688A60A268E1684A60211D426885
:102930008A4201D1E1684160002262610168491E5A
:102940000160A06A002813D0A06A226AE1698A6047
:10295000E269216A4A602146183142688A4201D1FF
:10296000216A41600022A2620168491E016000BF25
:102970002F49E06A0968884202D92D49E06A086057
:102980001422E16A51432B4A89184868A060826882
:10299000E260211D826800E035E051608160142210
:1029A000E16A5143234A8A1862611422E16A514361
:1029B000204A5158491C1423E26A5A431D4B99502E
:1029C0001D49E06A0968C96A88428FD901200090D0
:1029D0008CE700E000BF18480068C06A1421484333
:1029E00014490858012801D90120009013480068B3
:1029F000002801D1FFF704FB11480068002801D02E
:102A00000120009006E00D480068401C0B4908605A
:102A1000FFF7F6FA0098F8BD640000203C000020A3
:102A20002C00002030000020500000205800002022
:102A300040000020E0000020280000204800002086
:102A40004C00002070B50346D868C168002902D147
:102A500072B600BFFEE7886A0D6ACC69A560CD69D1
:102A60000C6A65600C4618344568A54201D10C6AB1
:102A7000446000258D620468641E04602D4800686F
:102A8000002838D14869CD688C68A5608D68CC680D
:102A900065600C1D4568A54201D1CC6844600025E5
:102AA0004D610468641E0460234CC86A2468A04217
:102AB00002D9214CC86A20601425CC6A6C431F4D92
:102AC0006419606888608568CD600C1D85686C60DD
:102AD00084601425CC6A6C43184D65194D6114252A
:102AE000CC6A6C43154D2C59641C1426CD6A754371
:102AF000124E745110E0124C6068C86185680D6216
:102B00000C46183485686C6084600D4D8D622C46CF
:102B10002468641C2C6000BF0A4CC86A2468E46AFC
:102B2000A04204D901220120074C206000E00022CD
:102B3000104670BD6400002040000020E00000202E
:102B40006C010020280000204C00002070B50024FB
:102B500000254D480068002802D172B600BFFEE78C
:102B6000FFF786FA48480068401E47490860084653
:102B7000006800287ED14548006800287FD056E0D4
:102B80004348C068C468A06A226AE1698A60E26951
:102B9000216A4A602146183142688A4201D1216A7D
:102BA00041600022A2620168491E01606069E2681A
:102BB000A1688A60A268E1684A60211D42688A4271
:102BC00001D1E1684160002262610168491E016033
:102BD0003049E06A0968884202D92E49E06A0860F3
:102BE0001422E16A51432C4A89184868A06082681F
:102BF000E260211D8268516081601422E16A5143C4
:102C0000254A8A1862611422E16A5143224A5158C6
:102C1000491C1423E26A5A431F4B99501F49E06A2A
:102C20000968C96A884202D301201D490860184812
:102C30000068002801D1012000E0002000289FD07A
:102C4000002C01D0FFF73CF816480668002E0DD086
:102C500000BFFFF71BFE002802D0012010490860CA
:102C6000761E002EF5D100200E4908600C48006841
:102C7000002800E003E002D00125FFF765FAFFF726
:102C800005FA284670BD00006400002038000020CE
:102C90006C01002040000020E000002028000020FF
:102CA0004C000020480000201CB50024FEF72AFD3F
:102CB0000A48006800280AD009480221002350224F
:102CC0000091019007A10948FFF796FD0446002CEA
:102CD00002D172B600BFFEE720461CBD7000002086
:102CE00074000020546D722053766300891D00002B
:102CF00006000000060000000600000006000000BC
:102D000006000000060000000100000003000000B3
:102D1000020000000400000006000000080000009F
:102D20000A0000000C0000000E000000100000006F
:102D3000808D5B00001BB700002D310101366E0154
:102D400080A8120100366E0100512502006CDC02E1
:102D500001A24A04742D000000000020A000000021
:102D6000CC120000142E0000A0000020301D000036
:102D7000DC12000000127A000000000000000000D9
:102D80000000000000000000000000000000000043
:102D9000000000000400000001000000000000002E
:102DA0000000000000000000000000000000000023
:102DB0000000000000000000000000000000000013
:102DC0000000000000000000000000000000000003
:102DD00000000000040000000000000000000000EF
:102DE00000000000000000000000000000000000E3
:102DF00000000000000000000000000000000000D3
:102E0000000000000000000000000000AAAAAAAA1A
:042E100000000000BE
:04000005000000C136
:00000001FF
