:020000040000FA
:10000000E01D0020510100006B0D0000F50C000008
:1000100000000000000000000000000000000000E0
:10002000000000000000000000000000C90F0000F8
:1000300000000000000000000F010000F50F0000AC
:10004000D5120000690D0000890F0000ED090000C5
:10005000510E0000EF090000F1090000F309000053
:10006000F5090000E5090000E7090000E9090000C2
:100070008D070000D9070000D1120000D312000044
:10008000C10B0000C50B0000E10B0000450C000097
:1000900099090000B5090000D1090000F90C000021
:1000A000FB0C0000C50F0000C70F00006D10000022
:1000B0009D100000B9100000F1070000EB090000DE
:1000C0000448854600F036FB00480047F91500005B
:1000D000C046C046E01D0020084B19680868203063
:1000E00080F30988022080F31488BFF36F8F3FBC30
:1000F000AE4608BC04BC62B61847000034000020BD
:10010000EFF3108072B6704780F310887047EFF3FA
:1001100009800E4B1A6820381060F0C044464D46E6
:1001200056465F46F0C008B572B602F061FA62B694
:100130000CBC116808681030F0C8A046A946B24649
:10014000BB4680F309882038F0C8184734000020E7
:100150000448804704480047FEE7FEE7FEE7FEE765
:10016000FEE7FEE729100000C100000030B50B4695
:10017000014600202022012409E00D46D5409D4281
:1001800005D31D469540491B254695404019154607
:10019000521E002DF1DC30BD03460B439B0703D0FC
:1001A00009E008C9121F08C0042AFAD203E00B783C
:1001B0000370401C491C521EF9D27047D2B201E0B4
:1001C0000270401C491EFBD270470022F6E710B5B2
:1001D00013460A4604461946FFF7F0FF204610BDB5
:1001E000F8B502464A40D40F42004B0052085B0863
:1001F0009A4202D20246084611464A0023D0C30D55
:100200004A00DDB2120EAD1A202D35DA4902012660
:10021000490AF6058A19002C00D0524220214F1BB2
:100220001146B9402A411018C20D9A4221D0002C23
:1002300017D0012D08DCDA05801AD20F8019D207F9
:10024000DBB200F0DFF9F8BDDA05801A01234000C7
:100250001B06C01880185A428018CA0F1043490064
:1002600007E04908C2071143DA05801A80194008DF
:10027000801800F0BFF9F8BD61000122511A001B7F
:10028000F7E70122D2075140AAE70122D2075040E6
:10029000A6E7024670B54A40D30FDB0740002DD0D9
:1002A0004A002AD0010E140E000212020919400A57
:1002B000520A8418E50104465443000A120A2E0427
:1002C0005043A4194219200CC543AA18120C012549
:1002D000AD03521C521912047F39240400D0521C61
:1002E000104301D44000491EC2B20C06C0092018B8
:1002F000401C4008802A02D003E0002070BD400866
:100300004000002900DA0020184370BD70B5024695
:100310004A40D50F40004A00ED0740085208002827
:1003200014D0002A12D0C40DD30D41020120C00503
:100330005202490A520AE41A091812187D349142ED
:1003400001D3641C00E04900002C01DA002070BDDC
:100350000023914201D3891A034340084900002831
:10036000F7D100290AD0914202D10121C90705E045
:10037000914201D2012101E00121C943E005C018E9
:10038000401900F037F970BDF0B5074608465840EF
:1003900087B0C00F049048000E4659004008490835
:1003A000BC1A884105D2384631461E4617460B46D0
:1003B00002465800400810434DD0300D03904005D0
:1003C0005900400D490D0590401A0290402873DAFB
:1003D00018030121000B09050843019004980092BD
:1003E000002806D01146019A494200209041009110
:1003F0000190029840210A1A0199009800F0C6F86D
:1004000005460C466B4607CB00F0E1F8C019714178
:10041000039A0E0D0023D71756401A467A4016430A
:1004200044D0049A002A2DD0029A012A039A15DC9E
:100430001205C01A914101263605001C7141D20FE8
:10044000059ED2070093019202962A46234600F0A9
:100450001FF907B0F0BD38463146FAE71605234AC2
:100460000F46B218C01AB74101210905001C4F41BF
:1004700000187F41114618187941E20F10436D1999
:10048000644113E0E2076D0815436408C207144392
:10049000039A01261205C01A91413605001C7141CC
:1004A000CE07400830434908C01851412A46234628
:1004B00000F0E1F8CDE7FFE7049801224000C11702
:1004C000121A00238B4104983146C417381AA141EF
:1004D000EEE730B40124E407634030BC54E730B4A5
:1004E0000124E407614030BC4EE700000000E0FF5B
:1004F00010B500229623114600F084F810BD41008B
:1005000040020122400AD205090E80187F2901DA33
:1005100000207047962903DC9622511AC840704784
:1005200096398840704700004A0009030123090BEF
:100530001B051943094B10B5520D9A4201DA0020F0
:1005400010BD064B34339A4203DC9A1A00F02EF8A1
:1005500010BD03495118884010BD0000FF03000082
:10056000CDFBFFFFC20FD207400040080BD0C10DEA
:100570000723DB01C91840020905400A1143C208DC
:1005800040071143704700200146704710B5202AEC
:1005900004DB0146203A9140002010BD9140202309
:1005A0009C1A0346E3401943904010BD10B5202A21
:1005B00004DB0846203AD040002110BD0B46D34052
:1005C000D0402024A21A91400843194610BD10B50E
:1005D000202A06DBCB170846203A1041C1170B43EF
:1005E00006E00B461341D0402024A21A9140084354
:1005F000194610BD002904DA401C490001D1400809
:100600004000704770B40024050C05D1102400048C
:1006100002D1002921D01124050E01D10002083495
:10062000050F01D10001241D850F01D18000A41CFC
:10063000002801DB4000641C002908D020252E1B67
:100640000D46F540A14000D0012129430843010691
:100650001B1B000ADB1D02D5002070BC7047DB05A8
:10066000181880180029F8DA401C4900F5D170BC30
:1006700040084000704710B5002B08DA0024401CE9
:10068000614192185B411A4301D14008400010BDFE
:10069000F0B51FB482B005460C0003D0084600F048
:1006A0002BFE02E000F028FE20300246009021469A
:1006B0002846FFF76BFF049B059A04460F46184334
:1006C0001143084314D0184610431BD00098402112
:1006D0000A1A18460599FFF769FF05460E46009A63
:1006E00005990498FFF752FF084305D0012004E064
:1006F0002046394607B0F0BD0020C11705430E4320
:100700002C43374300990E986305401A7905E40A93
:1007100000220C43FD0A0A3002D500200146E9E719
:100720000105101969410C9C0D9D00196941FFF7E5
:10073000A2FFDFE7064C0125064E05E0E36807CC83
:100740002B430C3C98471034B442F7D3FFF7BCFC62
:100750000C3100002C310000C2698A43C26170472D
:100760000348806BC009C0010149886370470000DD
:10077000002401400148006A80B270470024014013
:100780000149C96B017070470024014008B56846F3
:10079000FFF7F6FF00BF68460078C007C00F0028CB
:1007A000F9D0FFF7E7FF02490880FFF7D9FF08BD3E
:1007B00026000020C143014A51617047002C0140CE
:1007C0000146044800690840002801D00120704714
:1007D0000020FCE7002C014010B501200004FFF7C9
:1007E000EFFF002803D001200004FFF7E3FF10BD56
:1007F000704700007CB5012401F016FD00220421A1
:10080000052001F071FF27490860084600680028AC
:1008100002D025A000F060FD2848022100233222EA
:100820000091019026A1294802F070F90446012C9C
:1008300002D127A000F050FD2B48032100233222D3
:100840000091019029A12C4802F060F90446012C86
:1008500002D12AA000F040FD2D48022100233222BF
:10086000009101902BA12F4802F050F90446012C71
:1008700002D12DA000F030FD01F014FF05462946FD
:1008800030A000F029FD3948006801F0B7FD01F003
:1008900009FF0546294636A000F01EFD01F0D2FCF6
:1008A0007CBD000004000020437265617465205126
:1008B00075657565206F6B200D0A0000140000201F
:1008C00053656E6465725461736B0000CD0F000058
:1008D0004372656174652053656E6465725461731B
:1008E0006B206F6B0D0A00000C00002074657374A0
:1008F0005461736B31000000112100004372656187
:100900007465207461736B31206F6B0D0A000000F9
:100910001800002052656365697665725461736BD7
:10092000000000008D0F0000437265617465205265
:10093000656365697665725461736B206F6B0D0A30
:10094000000000004265666F7265205461736B445D
:10095000656C6574652046726565486561705369AC
:100960007A652069732025640D0A000008000020C4
:100970004166746572205461736B44656C6574657F
:1009800020467265654865617053697A65206973B0
:100990002025640D0A00000010B50121044800F074
:1009A00018F8002803D001210148FFF7D5FE10BD3B
:1009B0000048014010B50121044800F00AF8002861
:1009C00003D001210148FFF7C7FE10BD00490140D7
:1009D0007047024690690840002801D00120704706
:1009E0000020FCE7704770477047704770477047BA
:1009F00070477047704700001FB50121102000F0BC
:100A0000B5F90121202000F0B1F90121480200F0E0
:100A1000CDF90121802000F0B9F90920C006406914
:100A200000090001801C0921C90648610846406987
:100A3000F021884320300921C90648611B4880699C
:100A4000F0218843103019498861084680690009FF
:100A50000001401C8861FF2001300090202001909F
:100A60001348039069460920C00600F023F80120CE
:100A7000400200901120019069460920C00600F054
:100A800019F802200090202001900948039069463F
:100A9000064800F00FF80120009011200190044852
:100AA00003906946014800F005F81FBD00040048A6
:100AB000FFFF00004A68002A04D1C2690B681A438C
:100AC000C26174E0C2690B689A43C26110234A682C
:100AD0001A40102A4ED102680B681A4302604A6815
:100AE000112A07D102690B681A430261C2680B68B8
:100AF0009A43C2604A68122A07D1C2680B681A4337
:100B0000C26002690B689A430261426A0B689A43A9
:100B10004262826A0B689A438262C26A0B689A4395
:100B2000C262026B0B689A43026381238A681A408F
:100B3000812A03D1426A0B681A43426282238A687F
:100B40001A40822A03D1826A0B681A438262842384
:100B50008A681A40842A03D1C26A0B681A43C262A7
:100B600088238A681A40882A21D1026B0B681A43AD
:100B700002631CE002680B689A4302604A68202AFC
:100B800004D142680B689A43426003E042680B68F4
:100B90001A434260064BCA689A4204D182680B68C5
:100BA0001A43826003E082680B689A438260704750
:100BB000FFFF0000012A01D1C16500E08165704797
:100BC0007047000010B50121044800F050F80028DB
:100BD00003D00121014800F036F810BD001000409C
:100BE00010B50121044800F042F8002803D001218B
:100BF000014800F028F810BD0040014000B585B064
:100C00000121880200F0D2F8002000900190FF201E
:100C10008130039009480490002069460872084812
:100C200000F048F801221146054800F02CF8012197
:100C3000034800F00EF805B000BD00002F7500005D
:100C4000004001407047CA4303231B02C318DA6106
:100C50007047032212028218126952085200CB0711
:100C6000DB0F1A4303231B02C3181A6170470246A5
:100C700003200002101880690840002801D00120DC
:100C800070470020FCE710B5002A09D003231B029F
:100C9000C3185B690B43032424020419636108E051
:100CA00003231B02C3185B698B430324240204192A
:100CB000636110BD10B54B68CA681A430B681A43CC
:100CC0000B7A002B01D0402300E000231A430323BA
:100CD0001B02C3181B69064C23401A4303231B0243
:100CE000C3181A6103231B02C3180A691A6010BDD6
:100CF00019F8FFFF00BFFEE77047704770B5054663
:100D0000154801787D20C000FFF730FA06463146CD
:100D10002846FFF72BFA0446601E1049884201D985
:100D200001200CE0601E0E4948610321081F00F0FD
:100D300009FB00200A49886107200861002000287B
:100D400000D070BD0021481E00F0FCFA00200549CB
:100D5000086000BFF5E7000030000020FFFFFF0043
:100D600000E000E02C00002070477047002905D00B
:100D7000054A126B0243044B1A6304E0024A126BE9
:100D80008243014B1A63704700000140002905D0DF
:100D9000054A926B0243044B9A6304E0024A926B49
:100DA0008243014B9A63704700000140002905D03F
:100DB000054A526B0243044B5A6304E0024A526BE9
:100DC0008243014B5A6370470000014010B5082070
:100DD00000F024F8002000F04DF8002000F00EF89C
:100DE000002000F037F804480068FFF787FF012172
:100DF0000220FFF7BBFF10BD000000200449096876
:100E0000044A1140044A89180143014A116070479D
:100E1000000001401FFF000000005A5AC102932247
:100E2000520212881143084A916111464968074AE3
:100E30001143054A516000BF034989690122D20369
:100E400011409142F8D170470000014001005A5A08
:100E50007047000004490968044A1140044A89188F
:100E60000143014A1160704700000140E7FF0000A4
:100E700000005A5A70B50446074800680749084000
:100E80000749401820430449086000F00BF8054664
:100E900000F074F870BD000000000140F8FF000091
:100EA00000005A5AF8B5002500270024002600202B
:100EB00000902D48006847077F0F2B488069400449
:100EC000040F2948806A8007800F00902648806AB6
:100ED000C005C60E3B0000F026FA05040C130E10E8
:100EE0003400A000214A11582148FFF73FF9054678
:100EF0002FE0204D2DE0204D2BE00125ED0328E0D3
:100F00000098002804D0012803D003280ED104E063
:100F100000BF18483546454311E0A000134A115858
:100F20001348FFF723F97043054608E0A0000F4A75
:100F300011580F48FFF71AF97043054600BF00BF6C
:100F400007E0A000094A11580948FFF70FF90546C4
:100F500000BF00BF044800680006410F2846C84093
:100F600005462846F8BD000000000140A8300000FA
:100F7000006CDC020024F4002080000001490860BD
:100F800070470000000000207047000008B50CE02A
:100F90000022D24369460548006801F0DEFC0028C3
:100FA00003D003A0009900F097F9F1E704000020B6
:100FB000526563656976656420646174613A2025D1
:100FC000640D0A00704770477047000008B500BF05
:100FD0000C2000900AE000235A1E6946044800686D
:100FE00001F00EFC7D20C00001F0E6F9F3E70000FF
:100FF0000400002010B5FFF783F8044601F0D0FD8F
:10100000002803D001200007024948602046FFF76E
:101010007BF810BD00ED00E0014802490860704710
:1010200000127A000000002000B5FFF7F5FF9321C1
:10103000490209884805400D09498969C90AC90258
:101040000143074A91619321490249888805800D2F
:101050001146096A890A89020143116200BD000034
:101060000000014010B5FFF7C9FD10BD10B5042107
:10107000094800F068F8002803D00421064800F071
:1010800055F80221044800F05EF8012803D102213E
:10109000014800F04BF810BD0038014010B50421A4
:1010A000044800F050F8002803D00421014800F063
:1010B0003DF810BD004400407047000000B587B007
:1010C0004B200002019000216846018141811148B6
:1010D0000390684601824182818201830321C1829B
:1010E00001A90D4800F038F84B20000201900021C2
:1010F0006846018141810748039068460182418228
:10110000818201830321C18201A9044800F024F8EF
:1011100007B000BD00366E010038014000440040B9
:1011200010B5FFF769FCFFF7C9FF10BD026A8A43DB
:10113000026270470246D0690840002801D00120B1
:1011400070470020FCE70246D0690840002801D023
:10115000012070470020FCE7F0B589B005460C4639
:101160000026002008900027A088A1890843E18973
:101170000843218A0843618A08432968514A11407B
:1011800008432860E088A18A08436968C322920066
:10119000914308436860A08800282FD12168080186
:1011A000FFF7A6F90790A068FFF7A2F90690079944
:1011B000FFF7ACF807463846FFF7A1F986B230468C
:1011C000FFF796F939460190FFF75FF88321C905CB
:1011D0000290FFF75EF80390FFF7C4F900223A4B44
:1011E00005910490FFF7D0F807910690FFF79CF95E
:1011F00080B20890EE600898286160E0A088012124
:10120000490288421BD12168C800FFF771F902909A
:10121000A068FFF76DF901900299FFF777F8039046
:10122000FFF7A0F90022284B05910490FFF7ACF8D6
:1012300007910690FFF778F986B2EE603FE0A0884C
:101240000121890288421BD121688800FFF750F9EB
:101250000290A068FFF74CF901900299FFF756F849
:101260000390FFF77FF90022174B05910490FFF7D9
:101270008BF807910690FFF757F986B2EE601EE0F3
:101280002068FFF735F90290A068FFF731F9872150
:10129000C9050090FEF7FDFF01900299FFF736F8AF
:1012A0000390FFF75FF90022074B05910490FFF7C9
:1012B0006BF807910690FFF737F986B2EE6009B038
:1012C000F0BD0000C0F8FFFF0000E03F8162704702
:1012D00070477047704700000FB410B503A9044B66
:1012E000044A029800F07AF810BC08BC04B0184711
:1012F0002D150000A80000202021020C01D0102193
:101300001046020A01D010460839020901D01046E1
:10131000091F820801D01046891E420801D0881E8C
:101320007047081A704730B47446641E2578641CF0
:10133000AB4204D3635D5B00E31830BC18471D4625
:10134000F8E7000010B5002819DB1A4A03231B0236
:10135000D21883089B00D2588307DC0EFF23A340DA
:101360009A438B071B0E8407E40EA3401A43114BCC
:10137000032424021B198408A4001A5118E00E4A01
:1013800003071B0F083B9B089B00D2588307DC0E0A
:10139000FF23A3409A438B071B0E8407E40EA34050
:1013A0001A43054B0407240F083CA408A4001A5153
:1013B00010BD000000E100E01CED00E002E008C804
:1013C000121F08C1002AFAD170477047002001E0BF
:1013D00001C1121F002AFBD170470000FFB58DB07C
:1013E0000446002506E025280AD0109A0F99904758
:1013F000641C6D1C20780028F5D1284611B0F0BD82
:1014000000270121484A009700E00743641C237825
:101410000846203B98401042F7D120782E2817D15B
:10142000042007436078641C2A280CD10E98641CA1
:1014300002C800910E900BE000990A225143303906
:101440004018641C00902078014630390929F3D9EE
:1014500020780028D1D0642808D0692806D07528C3
:101460001ED0109A0F9990476D1C5BE00A200E99D0
:10147000019001C90E91002802DA40422D2102E0BC
:10148000390504D52B216A461172012103E0F907C1
:1014900004D02021F7E70BAE0B910DE00021FAE715
:1014A0000A200E99019001C90E91F7E70199FEF704
:1014B0005DFE3031761E31700028F7D103A8801B05
:1014C00020300190780701D5009801E001200090BC
:1014D0000199884201DD401A00E0002000270090B9
:1014E00006E002A8109AC05D0F9990476D1C7F1C02
:1014F0000B988742F5DB04E0109A30200F99904753
:101500006D1C0099481E00900029F5DC05E030783C
:10151000109A761C0F9990476D1C0199481E0190F6
:101520000029F4DC641C65E70928010070B5044655
:101530000D46E1B20548FFF7C9FE00BF012103488F
:10154000FFF7F8FD0028F9D0204670BD00440040A8
:101550001FB501211020FFF709FC01212020FFF712
:1015600005FC1821009808430090202001900448B1
:10157000039069460920C006FFF79CFA1FBD0000D2
:10158000FFFF00001FB501212020FFF7EFFB012125
:101590004802FFF7EBFB032080020090212001901E
:1015A0001248039069461248FFF784FAC020009061
:1015B000212001900D48039069460E48FFF77AFA02
:1015C000012291020A48FFF7F5FA0122D1020848E8
:1015D000FFF7F0FA012240210648FFF7EBFA01225B
:1015E00080210448FFF7E6FA1FBD0000FFFF00005E
:1015F00000040048001400481CB5FFF7E7FBFFF7A4
:101600008FFDFFF7A5FFFFF7BDFFFFF72BFD0124BF
:10161000094801210023C8220091019007A10B482D
:1016200001F074FA0446012C04D109A0FFF754FE1E
:1016300000F096FF00BFFEE70800002041707054E4
:1016400061736B437265617465000000F50700000B
:10165000437265617465207461736B206F6B2C201D
:10166000537461727420746865207363686564756F
:101670006C65720D0A000000F8B505460E4621485B
:10168000076821480068001D00F076FD681C0028EE
:101690001CD1002E1AD01D4948681B490968886072
:1016A000194982680968CA6017490968091D826872
:1016B000516015490968091D8160144A1249096879
:1016C0004A6111460968491C11601AE07C190E48EC
:1016D00000684460BC4207D20B480168091D0C48F1
:1016E000006800F079FD0CE007480168091D094811
:1016F000006800F071FD08480068844201D2064885
:101700000460F8BD4800002034000020A001002043
:101710003C000020380000206400002010B5044682
:1017200000F082FD2D480068401C2C4908602C48C0
:101730000068002808D12A4804600846006801288B
:101740000ED100F0DFF90BE026480068002807D131
:1017500023480068C06AE16A884201D820480460D2
:1017600021480068401C2049086008460068606401
:101770001E49E06A0968884202D91C49E06A08608B
:101780001422E16A51431A4A89184868A0608268A5
:10179000E260211D8268516081601422E16A514338
:1017A000134A8A1862611422E16A5143104A51585F
:1017B000491C1423E26A5A430D4B995000F042FD34
:1017C00008480068002807D005480068C06AE16A38
:1017D000884201D200F094FD10BD000044000020BA
:1017E0003400002050000020600000204C00002049
:1017F000EC00002010B500F017FD1148006800282B
:101800001BD1104800F0D8FC0F4800F0D5FC0D4863
:101810000E4908600C480E49086000220C21052082
:1018200000F062FF0649086008460068002804D0FE
:1018300008A10348006800F06FFD00F003FD10BD33
:101840007C000020B4010020C801002074000020AA
:1018500078000020546D72510000000010B516E0B1
:1018600000F0E2FC0C48C068C468201D00F084FC55
:101870000A480068401E0949086009480068401E7F
:101880000749086000F0DEFC204600F061F80448DB
:1018900000680028E4D110BD8C0100204400002025
:1018A0004000002070B504460D46206C00280ED084
:1018B000216CE0684118E160A168E068884201D3CA
:1018C0002168E1602846226CE168FEF765FC70BD86
:1018D000F8B504460F46154600200090A66B206C14
:1018E000002809D1206800282ED1A06801F02CFA28
:1018F00000900020A06027E0002D0FD13946226C17
:101900006068FEF749FC216C606840186060A1685F
:101910006068884218D32068606015E03946226C00
:10192000E068FEF739FC216CE068411AE16021684B
:10193000E068884203D2216CA068411AE160022D60
:1019400002D1002E00D0761E701CA0630098F8BD56
:1019500010B50446206B00F089FC204600F086FCA0
:1019600010BD00000146094A12681268002A01D120
:10197000012200E000220A600A68002A04D1034A1A
:101980001268D268106800E00020704774000020E0
:1019900030B50323DB0215484407640F002C05D043
:1019A000C01DC008C000114C041B1B1B0246104C7C
:1019B000226000240E4D6C60D0180838C008C000AA
:1019C0000C4C206000240B4D2D686C60094D2D6877
:1019D0002C601146441A4C60064C24680C60064D7D
:1019E0004C682C60054D4C682C6030BDDC0100203B
:1019F0008800002090000020980000209400002023
:101A000000BFFFF72BFF04480068012801D900F050
:101A100077FC00F0C5FBF4E7EC000020FFB581B0D7
:101A200006460D4617460A9C002D01D1246000E0B1
:101A30002760E66325640121204600F086FE4C21E4
:101A40000498085505B0F0BDFFB581B00F460A9E59
:101A50000C9C039A9100A522206BFEF7AFFB216B33
:101A60000398401E8000081800900098C008C0002D
:101A7000009000984007400F002801D1012000E0AD
:101A80000020002802D172B600BFFEE7002F10D060
:101A9000002508E0795D204634304155785D002806
:101AA00000D102E06D1C102DF4D300BF00214320B3
:101AB0000155052E01D2012000E00020002802D1AE
:101AC00072B600BFFEE7052E00D30426E662E66488
:101AD000201D00F07EFB2046183000F07AFB2461C8
:101AE0000520801BA0616462049A0199009800F0AF
:101AF000FFFA20600B98002801D00B98046005B015
:101B0000F0BD000010B5002406E0142161430E4A28
:101B1000881800F051FB641C052CF6D30B4800F02C
:101B20004BFB0B4800F048FB0A4800F045FB0A4815
:101B300000F042FB094800F03FFB044808490860F8
:101B400003480849086010BDEC0000205001002047
:101B500064010020780100208C010020A0010020F9
:101B6000380000203C00002010B50146164800E077
:101B7000006803688B42FBD3024643689B188B4284
:101B800004D143684C681B19436001460A464B6800
:101B90009B180468A34211D10C4C03682468A3422B
:101BA00008D04B68046864681B194B6003681B68A5
:101BB0000B6005E0054B1B680B6001E003680B60E0
:101BC000884200D0016010BD8800002090000020F5
:101BD000F8B504460D4616461F4600200090656085
:101BE0002461B5420CD8F01BA169884202D30120C0
:101BF000009011E0211D0948006800F0EDFA0BE0AB
:101C0000BE4204D2BD4202D30120009004E0211D57
:101C10000348006800F0E0FA0098F8BD7800002062
:101C20007400002070B5054600F0FEFAA86B00288D
:101C300001D1012400E0002400F004FB204670BD27
:101C400070B5054600F0F0FAA86BE96B884201D147
:101C5000012400E0002400F0F5FA204670BD0000E9
:101C600070B505460E460E480068C068C468201D61
:101C700000F082FA2820005D04210840002805D0E9
:101C800032462946204600F0D1F805E02820005DC4
:101C9000FE210840282108552046216A884770BD4A
:101CA000740000207FB57EE0019800287BDB039C58
:101CB0006069002801D1012000E00020002802D145
:101CC000201D00F059FA684600F0DEF8054601983C
:101CD0000300FFF728FB0A66060831395507093269
:101CE0003A6600BF00BF00BF2820005D0121084305
:101CF000282108550298A269811803462A462046E1
:101D0000FFF766FF002816D02820005D0421084058
:101D1000002807D00298A26981182A46204600F0C0
:101D200085F805E02820005DFE210840282108559F
:101D30002046216A884735E000BF2820005DFE214B
:101D40000840282108552DE000BF2820005D012112
:101D50000843282108550298A061A069002801D0F5
:101D6000012000E00020002802D172B600BFFEE78B
:101D7000A06941192B462A462046FFF729FF11E0AA
:101D80002820005D02210840002803D1204600F0F1
:101D90006DFA05E02820005DFE2108402821085545
:101DA00000E000BF00BF002201A90448006800F065
:101DB000D4FD002800D077E77FBD00007C00002024
:101DC000F8B505460C4600F00BFC684600F05CF8E0
:101DD00006460098002822D1002C08D1B54206D82A
:101DE00001F090F831462846FFF73AFF19E0002C41
:101DF00008D00C4800680068002801D1012000E0EC
:101E000000200446A91B22460748006800F0AEFAED
:101E100001F078F8002804D100F072FA01E001F036
:101E200071F8F8BD780000207C00002070B50446F1
:101E30000D46164604E0A06945192046216A8847E8
:101E4000A06941192B4632462046FFF7C1FE002803
:101E5000F1D170BD0A4800680068002801D1012056
:101E600000E00020002804D00020C043054908609D
:101E700005E003480068C0680068024908607047D0
:101E8000380000206400002070B5044600F082FE97
:101E9000054607480068854204D200F00BF801208F
:101EA000206001E00020206001480560284670BDE8
:101EB0008400002070B508E00D480068C068046820
:101EC0000021C9432046FFF7CBFE0948006800689F
:101ED000002801D1012000E000200028ECD00448B7
:101EE000056804480068024908600248056070BD42
:101EF000740000207800002007480068401C00287B
:101F000001D1012000E00020002802D172B600BFFC
:101F1000FEE772B600BFFEE7A400002008B500BFD0
:101F20006846FFF71FFD044620460099FFF748FF6B
:101F3000FFF7B8FEF4E770B5044600F075F94520E8
:101F4000055713E0606A002801D1012000E000205D
:101F5000002808D12046243000F050FF002803D08C
:101F600000F0B6FA00E003E0681E45B2002DE9DC9F
:101F700000BF0021C9434520015500F063F900F07E
:101F800053F94420055713E02069002801D10120AE
:101F900000E0002000280AD12046103000F02EFF7B
:101FA000002801D000F094FA681E45B200E001E07C
:101FB000002DE9DC00BF0021C9434420015500F099
:101FC00041F970BDFEB505460020019000F008FB08
:101FD00042480068002801D1FFF7DAFC002D13D039
:101FE0006807400F1021081A00900021C94300988B
:101FF000081AA84201D2012000E00020002802D1E6
:1020000000982D1800E00025E817401C00284ED04D
:10201000002D4CD032480068854248D8314E3046B9
:10202000046801E0264624686068A84202D220685D
:102030000028F7D129480068844238D03068083039
:102040000190206830606068401B102813D9671920
:102050007807400F002801D1012000E0002000286F
:1020600002D172B600BFFEE76068401B7860656011
:102070003846FFF779FD1A4960680968081A184957
:1020800008600846006818490968884203D2144865
:102090000068154908600121C9076068084360604D
:1020A0000020206011480068401C1049086000F0C2
:1020B00029FF0198002801D100F078F80198400725
:1020C000400F002801D1012000E00020002802D1AB
:1020D00072B600BFFEE70198FEBD00009000002030
:1020E0009400002088000020980000209C00002020
:1020F000001F01231B060360001F0160001F034B2C
:10210000036014380260203870470000F91E000098
:1021100008B500F0C7FA044621460AA0FFF7DCF82C
:102120000EA0009000BF10201149886100235A1EA4
:1021300069461048006800F063FB7D20400100F014
:102140003BF9F0E7467265654865617053697A65E9
:102150002069732025640D0A000000007465737403
:102160005461736B312032732072756E0000000071
:10217000400000480400002001460A694B68886856
:1021800098608B68486858605068884201D18868B8
:102190005060002008611068401E10601068704791
:1021A00010200149086270474000004872B600BF25
:1021B000FEE772B600BFFEE701460831416000212C
:1021C000C943816001460831C1600161002101609D
:1021D000704700210161704710B502460B685C1C16
:1021E000002C01D1106907E01046083000E040687B
:1021F000446824689C42FAD944684C604C68A160E9
:10220000886041600A611468641C146010BD4268F3
:102210004A6093688B6093685960916008610368B5
:102220005B1C03607047000072B605480068401CE4
:1022300003490860BFF34F8FBFF36F8F70470000F3
:10224000A400002008480068002802D172B600BF30
:10225000FEE705480068401E03490860084600681C
:10226000002800D162B67047A400002070B5064671
:102270003546002E30D0083D2C466068C00F00283F
:1022800002D172B600BFFEE72068002801D101200C
:1022900000E00020002802D172B600BFFEE76068AF
:1022A000C00F002818D02068002815D160684000B1
:1022B0004008606000F094F90849606809684018B7
:1022C000064908602046FFF74FFC05480068401C9F
:1022D0000349086000F016FE70BD00009400002065
:1022E000A00000200020044908618861034848617B
:1022F000072008617047000000E000E0BF5D0000BB
:102300000120000703494860BFF34F8FBFF36F8F71
:102310007047000000ED00E030B502460B4600219A
:10232000002A02D172B600BFFEE7002B17D00020B2
:1023300012E0C4000C4D64196468944202D1C400D8
:1023400061190BE0002906D1C400074D2C59002C5F
:1023500001D1C4006119401C0828EAD300BF00293C
:1023600001D00B604A6030BDAC000020F8B50546D6
:102370000E4617462C46FFF757FF44210857401CCE
:10238000002802D100214420015545210857401C56
:10239000002802D1002145200155FFF753FFA06B13
:1023A000002805D13A4631462046243000F0ACF8EA
:1023B0002046FFF7C0FDF8BD70B504460025002C8F
:1023C00014D00D480068002801D1012000E0002051
:1023D000002802D172B600BFFEE700F001F900212B
:1023E0002046FFF749F900F08DFD0546002D01D18B
:1023F000FFF786FF70BD00007000002070B5054635
:10240000FFF712FF002D02D12448006800E02846A3
:102410000446201DFFF7B0FEA06A002803D0204626
:102420001830FFF7A9FE1E480068401C1C490860D0
:102430001A480068844209D1211D1A48FFF7E7FEB7
:1024400019480068401C1849086006E017480068F1
:10245000401E16490860FFF7FDFCFFF7F3FE0F482A
:102460000068844202D02046FFF772FA10480068E4
:10247000002811D00948006884420DD10D48006839
:10248000002801D1012000E00020002802D172B60E
:1024900000BFFEE7FFF734FF70BD000034000020EE
:1024A000600000208C01002040000020440000203B
:1024B00050000020700000200349096801600349B2
:1024C00009684160704700005C000020480000205F
:1024D00001200149086070475800002070B504468B
:1024E0000D46002C02D172B600BFFEE70548016818
:1024F00018312046FFF770FE01212846FFF7BCF88F
:1025000070BD00003400002070B504460E4615462C
:10251000002C02D172B600BFFEE760680F4909685F
:10252000C8610E49826809680A620C490968183155
:102530008268516009490968183181600749096852
:102540008C622168491C2160002D01D00026F643D1
:1025500029463046FFF790F870BD00003400002097
:102560001CB5174800210B463C220091019015A193
:10257000164800F0CBFA0446012C02D100F070FDA1
:102580000446012C0DD172B60020C04310490860EA
:1025900001201049086000200F49086000F088F809
:1025A0000AE0601C002801D0012000E00020002883
:1025B00002D172B600BFFEE7084800681CBD0000EB
:1025C0006800002049444C4500000000011A00004A
:1025D0006400002050000020480000206C00002013
:1025E00002480068401C01490860704770000020E4
:1025F00070B526480068002803D0012024490860EF
:1026000043E000202249086022480068046B224D04
:1026100029462068884208D16068884205D1A068B0
:10262000884202D1E068884205D01A4801683431F6
:102630000068FFF7BEFD1948016805E0002902D1D6
:1026400072B600BFFEE7491E14204843144A1058D2
:10265000002801D1012000E000200028EED1142242
:102660004A430F4BD0184268526842600246083213
:102670004368934202D14268526842604268D2681D
:10268000044B1A600548016000BF70BD7000002057
:102690005800002034000020A5A5A5A54C0000206E
:1026A000EC00002001480068704700009400002002
:1026B00010B50B48006AFF21090408430849086265
:1026C0000846006AFF210906084305490862FFF72A
:1026D00009FE002003490860FDF7FEFC002010BD44
:1026E00000ED00E0A4000020F7B582B005460E46DC
:1026F0000024002D21D02946601EFDF737FDB04291
:102700001BD3284670435021C943884215D82F4611
:10271000774338465030FFF755FC0446002C11D063
:102720000194019C20465030019000943146284687
:10273000049B019AFFF772F904E0002C02D172B6F3
:1027400000BFFEE7204605B0F0BDF8B505460E46D1
:1027500001272C46002C02D172B600BFFEE7002CE8
:1027600041D0E06B00283ED00020C043E16BFDF774
:10277000FDFC216C884236D3FFF756FD216CE06BDF
:10278000484321684018A0600020A0632068606072
:10279000E06B401E216C484321684118E160002134
:1027A000C9434420015545200155002E10D1206910
:1027B000002801D1012000E00020002810D120468F
:1027C000103000F01BFB00280AD0FFF799FD07E04E
:1027D00020461030FFF7F0FC20462430FFF7ECFCD9
:1027E000FFF730FD00E00027002F01D0012000E0BE
:1027F0000020002802D172B600BFFEE73846F8BDBF
:10280000FFB583B006461D46002002903446002CDA
:1028100002D172B600BFFEE70498002802D1206CF6
:10282000002801D1012000E00020002802D172B66A
:1028300000BFFEE7022D02D1E06B012801D101208B
:1028400000E00020002802D172B600BFFEE700F0D1
:102850008FF9002802D10598002801D1012000E05D
:102860000020002802D172B600BFFEE700BFFFF7CC
:10287000DBFCA06BE16B884201D3022D1FD12A46FD
:1028800020460499FFF724F80746606A002801D122
:10289000012000E00020002808D12046243000F06C
:1028A000ADFA002806D0FFF72BFD03E0002F01D082
:1028B000FFF726FDFFF7C6FC012007B0F0BD059825
:1028C000002803D1FFF7BEFC0020F6E7029800289D
:1028D00004D16846FFF7F0FD01200290FFF7B2FC3B
:1028E000FFF77EFEFFF7A0FC44210857401C00289C
:1028F00002D100214420015545210857401C0028E1
:1029000002D1002145200155FFF79CFC05A968462E
:1029100000F0C0F8002819D12046FFF791F90028EF
:102920000ED0204610300599FFF7D8FD2046FFF75E
:1029300002FB00F0E7FA002899D1FFF7E1FC96E7E7
:102940002046FFF7F8FA00F0DDFA90E72046FFF79F
:10295000F2FA00F0D7FA0020AFE7F7B584B00546E9
:102960000E46002003902C46002C02D172B600BF08
:10297000FEE7002E02D1206C002801D1012000E0EA
:102980000020002802D172B600BFFEE700F0F0F888
:10299000002802D10698002801D1012000E0002083
:1029A000002802D172B600BFFEE700BFFFF73CFC73
:1029B000A76B002F1AD031462046FEF773FF781E12
:1029C000A0632069002801D1012000E00020002838
:1029D00007D12046103000F011FA002801D0FFF78F
:1029E0008FFCFFF72FFC012007B0F0BD06980028F0
:1029F00003D1FFF727FC0020F6E70398002804D155
:102A000001A8FFF759FD01200390FFF71BFCFFF71A
:102A1000E7FDFFF709FC44210857401C002802D1BC
:102A200000214420015545210857401C002802D1AF
:102A3000002145200155FFF705FC06A901A800F07B
:102A400029F8002819D12046FFF7ECF800280ED00D
:102A5000204624300699FFF741FD2046FFF76BFA28
:102A600000F050FA0028A1D1FFF74AFC9EE720466B
:102A7000FFF761FA00F046FA98E72046FFF75BFAA5
:102A800000F040FA2046FFF7CDF800288ED0002055
:102A9000AAE7000070B505460C46002D02D172B6BB
:102AA00000BFFEE7002C02D172B600BFFEE7FFF7C1
:102AB000BBFB144802686868131A2068401C002891
:102AC00001D1002619E0104928680968884206D01B
:102AD0006868904203D80126002020600DE020683D
:102AE000984207D92068C01A20602846FFF7E4FC06
:102AF000002602E0002020600126FFF7A3FB3046FD
:102B000070BD0000480000205C000020FFB585B0CB
:102B10001746B800FFF756FA0646002E0FD05C2085
:102B2000FFF750FA0446002C05D05C212046FDF743
:102B30004CFB266304E03046FFF798FB00E00024DE
:102B4000002C10D000220F990E986B4613C30392ED
:102B50003A46089B06990598FEF776FF2046FEF751
:102B6000DDFD012501E00025ED43284609B0F0BD5B
:102B700006490968002901D1012006E004490968D5
:102B8000002901D1022000E0002070475000002001
:102B900070000020014908687047000048000020CC
:102BA000F8B5002000905D48006800287ED15C48A0
:102BB0000068451C5A480560002D1CD15948006822
:102BC0000068002801D1012000E00020002802D187
:102BD00072B600BFFEE75348076853480068514982
:102BE00008605148076051480068401C4F49086020
:102BF000FFF730F900BF4E480068854275D300BF2B
:102C0000484800680068002801D1012000E0002049
:102C1000002804D00020C0434549086064E04148D2
:102C20000068C068C4686668B54202D24048066061
:102C30005AE06069E268A1688A60A268E1684A6057
:102C4000211D42688A4201D1E1684160002262612F
:102C50000168491E0160A06A002813D0A06A226A98
:102C6000E1698A60E269216A4A6021461831426856
:102C70008A4201D1216A41600022A2620168491E94
:102C8000016000BF2B49E06A0968884202D92949DE
:102C9000E06A08601422E16A5143274A89184868AB
:102CA000A0608268E260211D826800E02FE0516030
:102CB00081601422E16A51431F4A8A18626114221A
:102CC000E16A51431C4A5158491C1423E26A5A4391
:102CD000194B99501949E06A0968C96A88428FD925
:102CE000012000908CE700E000BF14480068C06A33
:102CF0001421484310490858012801D901200090A7
:102D00000F480068002801D00120009004E00D4821
:102D10000068401C0B4908600098F8BD7000002056
:102D200048000020380000203C0000205C0000200B
:102D3000640000204C000020EC0000203400002043
:102D4000580000205400002070B505462C4600268F
:102D5000002D4BD026480068844201D1012000E0BC
:102D60000020002802D172B600BFFEE7206D0028C7
:102D700002D172B600BFFEE7206D401E2065E16CF7
:102D8000E06A884232D0206D00282FD1201DFFF745
:102D9000F3F9E06CE0620521E06A081AA0611549C8
:102DA000E06A0968884202D91249E06A0860142280
:102DB000E16A5143104A89184868A0608268E2605D
:102DC000211D8268516081601422E16A51430A4AE0
:102DD0008A1862611422E16A5143074A5158491C1A
:102DE0001423E26A5A43044B99500126304670BDC1
:102DF000340000204C000020EC00002070B5034699
:102E0000D868C168002902D172B600BFFEE7886A9F
:102E10000D6ACC69A560CD690C6A65600C461834F2
:102E20004568A54201D10C6A446000258D620468A2
:102E3000641E04602D480068002838D14869CD68B8
:102E40008C68A5608D68CC6865600C1D4568A542DE
:102E500001D1CC68446000254D610468641E0460A3
:102E6000234CC86A2468A04202D9214CC86A206059
:102E70001425CC6A6C431F4D6419606888608568AE
:102E8000CD600C1D85686C6084601425CC6A6C4331
:102E9000184D65194D611425CC6A6C43154D2C599C
:102EA000641C1426CD6A7543124E745110E0124C06
:102EB0006068C86185680D620C46183485686C606E
:102EC00084600D4D8D622C462468641C2C6000BF0C
:102ED0000A4CC86A2468E46AA04204D9012201208D
:102EE000074C206000E00022104670BD70000020FA
:102EF0004C000020EC00002078010020340000206D
:102F00005800002070B5002400254D4800680028B6
:102F100002D172B600BFFEE7FFF786F948480068A5
:102F2000401E474908600846006800287ED1454891
:102F3000006800287FD056E04348C068C468A06A93
:102F4000226AE1698A60E269216A4A602146183191
:102F500042688A4201D1216A41600022A26201686E
:102F6000491E01606069E268A1688A60A268E16840
:102F70004A60211D42688A4201D1E1684160002215
:102F800062610168491E01603049E06A096888424F
:102F900002D92E49E06A08601422E16A51432C4AA2
:102FA00089184868A0608268E260211D82685160CB
:102FB00081601422E16A5143254A8A186261142211
:102FC000E16A5143224A5158491C1423E26A5A4388
:102FD0001F4B99501F49E06A0968C96A884202D3A9
:102FE00001201D49086018480068002801D101200F
:102FF00000E0002000289FD0002C01D0FEF72AFF1F
:1030000016480668002E0DD000BFFFF7C9FD002846
:1030100002D0012010490860761E002EF5D1002054
:103020000E4908600C480068002800E003E002D068
:103030000125FFF765F9FFF705F9284670BD000087
:103040007000002044000020780100204C00002087
:10305000EC00002034000020580000205400002024
:103060001CB50024FEF7C6FB0A48006800280AD0F9
:1030700009480221002350220091019007A109482C
:10308000FFF744FD0446002C02D172B600BFFEE7F4
:1030900020461CBD7C00002080000020546D722062
:1030A000537663001D1F00000600000006000000AC
:1030B00006000000060000000600000006000000F8
:1030C00001000000030000000200000004000000F6
:1030D00006000000080000000A0000000C000000CC
:1030E0000E00000010000000808D5B00001BB70088
:1030F000002D310101366E0180A8120100366E01EB
:1031000000512502006CDC0201A24A042C310000AF
:1031100000000020AC000000BC130000D83100000B
:10312000AC000020341D0000CC13000000127A0017
:10313000000000000000000000000000000000008F
:10314000000000000000000000000000000000007F
:10315000000000000000000004000000010000006A
:10316000000000000000000000000000000000005F
:10317000000000000000000000000000000000004F
:10318000000000000000000000000000000000003F
:10319000000000000000000004000000000000002B
:1031A000000000000000000000000000000000001F
:1031B000000000000000000000000000000000000F
:1031C00000000000000000000000000000000000FF
:0831D000AAAAAAAA000000004F
:04000005000000C136
:00000001FF
